:020000040800F2
:10000000100B0020450100089B0400080F040008A5
:1000100097040008DD010008AB0B00080000000099
:10002000000000000000000000000000550700086C
:10003000E10100080000000069050008410800080F
:100040005F0100085F0100085F0100085F01000810
:100050005F0100085F0100085F0100085F01000800
:100060005F0100085F0100085F0100085F010008F0
:100070005F0100085F0100085F0100085F010008E0
:100080005F0100085F0100085F0100085F010008D0
:100090005F0100085F0100085F0100085F010008C0
:1000A0005F0100085F0100085F0100085F010008B0
:1000B0005F0100085F0100085F0100085F010008A0
:1000C0005F0100085F0100085F0100085F01000890
:1000D0005F010008E50800085F0100085F010008F3
:1000E0005F0100085F0100085F0100085F01000870
:1000F0005F0100085F0100085F0100085F01000860
:100100005F0100085F0100085F0100085F0100084F
:100110005F0100085F0100085F0100085F0100083F
:100120005F0100085F0100085F0100085F0100082F
:10013000DFF80CD000F040F80048004761120008DA
:10014000100B00200648804706480047FEE7FEE700
:10015000FEE7FEE7FEE7FEE7FEE7FEE7FEE7FEE777
:100160004508000831010008D2B201E000F8012B77
:10017000491EFBD270470022F6E710B513460A4627
:1001800004461946FFF7F0FF204610BD30B50B4678
:10019000014600202022012409E021FA02F59D42B7
:1001A00005D303FA02F5491B04FA02F52844151E8B
:1001B000A2F10102F1DC30BD064C074D06E0E0681B
:1001C00040F0010394E8070098471034AC42F6D39E
:1001D000FFF7B2FF1C1B00083C1B000800BFFEE736
:1001E0007047000001460D4A12884A434FF0E02351
:1001F0005A6100229A6101221A6100BF4FF0E02289
:10020000106900F001021AB100F48032002AF5D022
:1002100000224FF0E0231A619A6170472800002005
:1002200001460D4A12784A434FF0E0235A610022FA
:100230009A6101221A6100BF4FF0E022106900F0BC
:1002400001021AB100F48032002AF5D000224FF0EA
:10025000E0231A619A6170472600002008B5012149
:100260001D2000F093F90F20ADF8000003208DF859
:10027000020010208DF8030069461A4800F038F893
:100280000121184800F0BFF80221164800F0BBF821
:100290000421144800F0B9F80821124800F0B5F81C
:1002A0004FF40070ADF8000003208DF8020010201C
:1002B0008DF8030069460C4800F01AF84FF40071FD
:1002C000094800F0A2F84020ADF8000003208DF8A6
:1002D000020048208DF803006946044800F008F841
:1002E00008BD000000080140000C01400010014062
:1002F0002DE9F041024600250026002000230024BD
:10030000002791F803C00CF00F0591F803C00CF022
:10031000100CBCF1000F03D091F802C04CEA0505A7
:1003200091F800C0BCF1000F31D0146800202BE020
:100330004FF0010C0CFA00F3B1F800C00CEA030610
:100340009E4220D183004FF00F0C0CFA03F7BC4300
:1003500005FA03FC4CEA040491F803C0BCF1280F31
:1003600006D14FF0010C0CFA00FCC2F814C00AE0F0
:1003700091F803C0BCF1480F05D14FF0010C0CFA05
:1003800000FCC2F810C0401C0828D1D31460B1F89A
:1003900000C0BCF1FF0F34DD546800202EE000F1F6
:1003A000080C4FF0010808FA0CF3B1F800C00CEA91
:1003B00003069E4221D183004FF00F0C0CFA03F785
:1003C000BC4305FA03FC4CEA040491F803C0BCF1F9
:1003D000280F05D100F1080C08FA0CF8C2F81480B7
:1003E00091F803C0BCF1480F07D100F1080C4FF0A1
:1003F000010808FA0CF8C2F81080401C0828CED377
:100400005460BDE8F081416170470161704700BFF1
:10041000FEE710B5002000F0CBFB10BD10B50120A9
:1004200000F0C6FB10BD70B504460025FFF7F1FFD4
:10043000C4F3074000F010F8C4F3072000F00CF8F4
:1004400004F0F80000F008F8002000F005F8054678
:10045000FFF7E4FF284670BD10B50446204600F0C3
:1004600025F910BD70B504460D46FFF7D2FFC4F361
:100470000740FFF7F1FFC4F30720FFF7EDFF04F09B
:10048000F801091DC8B2FFF7E7FF2846FFF7E4FFB0
:10049000FFF7C4FF70BD00BFFEE7704708B54FF41B
:1004A000C06000F04DF825208DF8000001208DF887
:1004B000010000208DF8020001208DF8030068463D
:1004C00000F006F800214FF0006000F043F808BD8E
:1004D00070B5002100230F22C47804B3154C2468A2
:1004E00004F4E064C4F5E064210AC1F10403CA40E5
:1004F000447804FA03F184781440214309010E4C36
:100500000678A155047804F01F050124AC40057855
:100510006D11AD0005F1E025C5F8004109E0047852
:1005200004F01F050124AC40044D0678761145F80F
:10053000264070BD0CED00E000E400E080E100E04A
:1005400002490143024A1160704700000000FA05A9
:100550000CED00E0024A0A400243024B1A60704769
:1005600080FFFF1F08ED00E07047000029B1064A38
:10057000D2690243044BDA6104E0034AD269824340
:10058000014BDA61704700000010024029B1064AB1
:1005900092690243044B9A6104E0034A92698243E0
:1005A000014B9A61704700000010024030B50021F5
:1005B0000022002400232D4D6D6805F00C0121B1AF
:1005C000042905D0082923D105E0294D056022E042
:1005D000274D05601FE0254D6D6805F47012234D11
:1005E0006D6805F48034022505EB92421CB9214D5B
:1005F000554305600BE01D4D6D6805F400351DB1D8
:100600001C4D5543056002E0194D5543056002E05D
:10061000174D056000BF00BF144D6D6805F0F00177
:100620000909154D6B5C0568DD4045600F4D6D682F
:1006300005F4E061090A104D6B5C4568DD4085609A
:100640000A4D6D6805F46051C90A0B4D6B5C456835
:10065000DD40C560054D6D6805F44041890B074DCF
:100660006B5CC568B5FBF3F5056130BD0010024059
:1006700000127A0000093D00000000201000002058
:1006800010B54FF400710848FFF7BDFE0220FFF7D8
:10069000C7FD4FF400710448FFF7B7FE4FF4C86080
:1006A000FFF7A0FD10BD0000000C014010B504468E
:1006B00000BF02210A4800F021F80028F9D02146A5
:1006C000074800F027F800BF0121054800F016F8A0
:1006D0000028F9D0024800F01AF8C0B210BD00009E
:1006E0000038004021B1028842F04002028004E05C
:1006F00002884FF6BF731A400280704702460020FE
:1007000013890B400BB1012000E000207047014627
:10071000888970478181704710B50022028802F4F1
:1007200041520B884C8823438C882343CC88234335
:100730000C8923434C8923438C892343CC8923434D
:100740001A430280838B4FF2FF74234083830B8A0A
:10075000038210BD704710B500F002F810BD000014
:100760000CB50020019000903348006840F48030C0
:100770003149086000BF3048006800F40030009044
:100780000198401C0190009818B90198B0F5A06F2D
:10079000F1D12948006800F4003010B10120009028
:1007A00001E0002000900098012843D12348006810
:1007B00040F01000214908600846006820F003005E
:1007C00008600846006840F0020008601A48406867
:1007D000194948600846406848600846406840F447
:1007E000806048600846406820F47C1048600846F5
:1007F000406840F4E81048600846006840F08070A7
:10080000086000BF0C48006800F000700028F9D0B4
:100810000948406820F003000749486008464068DE
:1008200040F00200486000BF0348406800F00C0040
:100830000828F9D10CBD0000001002400020024041
:100840007047000010B51348006840F001001149DE
:10085000086008464068104908400E49486008464C
:1008600000680E4908400B4908600846006820F4FB
:10087000802008600846406820F4FE0048604FF47D
:100880001F008860FFF767FF4FF0006004490860B1
:1008900010BD0000001002400000FFF8FFFFF6FE50
:1008A00008ED00E04FF0E021096921F004014FF06C
:1008B000E0221161C21700EB5272C2F3C702074B6C
:1008C0001A701946097801EB4102C2EBC1114FF6CB
:1008D000FF7202EAC101024A11807047260000201F
:1008E0002800002010B540F225511D4800F099F86D
:1008F00010B31B4800F050F9C4B21A48008800F445
:100900000040C8B91748008800F4804060B10A2C44
:1009100003D000201349088020E01248008840F4EA
:1009200000401049088019E00D2C06D10D480088C0
:1009300040F480400B49088010E00A480088C0F36A
:100940000D0009490C5407480088401C05490880DF
:1009500008460088C72801DD0020088010BD00007F
:10096000003801402A0000202606002000B585B08E
:10097000012144F20500FFF709FE18208DF803005D
:100980004FF40070ADF8000003208DF802006946B6
:100990001548FFF7ADFC04208DF803000002ADF808
:1009A000000069461048FFF7A3FC4FF4E1300190C6
:1009B0000020ADF80800ADF80A00ADF80C00ADF865
:1009C00010000C20ADF80E00012240F2255107481E
:1009D00000F051F801A9054800F072F80121034820
:1009E00000F006F805B000BD0008014000380140E5
:1009F00021B1828942F40052828104E082894DF65D
:100A0000FF731A408281704702460020B1F5007FD3
:100A100000D100BF13880B400BB1012000E0002083
:100A2000704770B50246002400230025002040F6E0
:100A30006A16B14200D100BFC1F3421501F01F0395
:100A4000012606FA03F3012D02D19689334006E010
:100A5000022D02D1168A334001E0968A33400C12EF
:100A6000012606FA04F41688344013B10CB10120B3
:100A700000E0002070BDF0B50346002400260025EC
:100A8000002040F66A17B94200D100BF1846C1F3F2
:100A9000421401F01F06012707FA06F5012C01D1C7
:100AA0000C3004E0022C01D1103000E014301AB1F7
:100AB00007682F43076002E00768AF430760F0BD97
:100AC0002DE9F04786B005460E460024A24600BF39
:100AD000A1460027B08900B100BF2F462C8A4CF6F2
:100AE000FF700440F08804432C82AC894EF6F3106A
:100AF0000440B08831890843718908430443AC81BC
:100B0000AC8A4FF6FF400440B0890443AC8201A890
:100B1000FFF74CFD1F48874202D1DDF810A001E02D
:100B2000DDF80CA0A88900F4004040B10AEBCA002F
:100B300000EB0A1031684900B0FBF1F807E00AEB5E
:100B4000CA0000EB0A1031688900B0FBF1F864209C
:100B5000B8FBF0F004012009642101FB1089A88989
:100B600000F4004040B1322000EBC900B0FBF1F0CE
:100B700000F00700044308E0322000EB0910642174
:100B8000B0FBF1F000F00F0004432C8106B0BDE88B
:100B9000F08700000038014001468888C0F3080053
:100BA0007047C1F308028280704700BFFEE7000073
:100BB00010B504462CB94FF480510548FFF723FCCB
:100BC00005E0012C03D121030148FFF71EFC10BDF5
:100BD000000C014000B587B001218803FFF7C6FC77
:100BE00001210920FFF7D2FC4FF46040ADF804006A
:100BF00003208DF8060018208DF8070001A91D4874
:100C0000FFF776FB4FF48050ADF8040003208DF819
:100C1000060010208DF8070001A91648FFF768FBB1
:100C20004FF480511348FFF7F0FB0020ADF80800A7
:100C30004FF48270ADF80A000020ADF80C00ADF85A
:100C40000E00ADF810004FF40070ADF8120008204F
:100C5000ADF814000020ADF816000720ADF818001C
:100C600002A90548FFF758FD01210348FFF73AFDA7
:100C700007B000BD000C0140003800400FB4054B28
:100C800010B503A9044A029800F018F810BC5DF8EA
:100C900014FB00002D1100082C00002002E008C801
:100CA000121F08C1002AFAD170477047002001E0E6
:100CB00001C1121F002AFBD1704700002DE9FF4F30
:100CC0008BB088460546002606E025280BD0DDE9D6
:100CD0000D1290476D1C761C28780028F5D10FB0B6
:100CE0003046BDE8F08F0024A146A2460122AE495D
:100CF00000E0044315F8013F203B02FA03F00842EC
:100D0000F7D128782A2810D06FF02F022878A0F188
:100D10003001092915D809EB890102EB410144F0A2
:100D2000020400EB01096D1CF0E758F8041B5FEAB0
:100D3000010903D544F40054C9F1000944F0020448
:100D40006D1C28782E2817D115F8010F44F00404E3
:100D50002A280ED06FF02F022878A0F1300109293F
:100D60000AD80AEB8A0102EB410100EB010A6D1C73
:100D7000F2E758F804AB6D1C28786C280FD006DC1D
:100D80004C2817D068280DD06A2814D104E07428A4
:100D900010D07A280FD10DE044F400140AE044F496
:100DA000801401E044F440146978814202D104F5D2
:100DB00080146D1C6D1C2878692865D006DC00281D
:100DC0008DD0632827D0642806D15DE06E2808D036
:100DD00073282AD0752877D0DDE90D129047761C4C
:100DE000E0E0C4F30250022809D003280DD0D8F85F
:100DF000001004280DD00E6008F10408D2E0D8F8E5
:100E00000010F217C1E90062F6E7D8F800100E8072
:100E1000F2E70E70F0E718F8041B8DF800100020C0
:100E20008DF80100EB46012003E058F804BB4FF0B9
:100E3000FF3061074FF0000701D40AE07F1C5745DF
:100E40000DDA8742FADB1BF807100029F6D106E01D
:100E50007F1C8742FCDB1BF807100029F8D1DDE975
:100E60000D23A9EB07008146214600F0B1F830447C
:100E7000C61904E0DDE90D121BF8010B90477F1E37
:100E8000F8D22146484688E058F8040BC4F30251D2
:100E90004FF00A0B032900D100B2042900D140B25F
:100EA000002802DA40422D2102E0210505D52B2140
:100EB0008DF82410012104E006E0E10710D0202184
:100EC000F6E708AF089113E058F8040BC4F3025199
:100ED0004FF00A0B032900D180B2042900D1C0B21F
:100EE0000021EEE75946FFF751F9303107F8011DAF
:100EF0000028F7D1ADEB070000F1200B600702D509
:100F000024F4803401E04FF0010ADA4502DDAAEB57
:100F10000B0000E00020824600EB0B010898014422
:100F2000A9EB01000A90E00306D4DDE90D23214678
:100F30000A9800F04DF806444FF0000908E009A9AE
:100F400011F80900DDE90D12904709F10109761C3D
:100F500008998945F3DBE0030CD5DDE90D23214633
:100F60000A9800F035F8064404E0DDE90D1230205F
:100F70009047761CBAF10001AAF1010AF5DC05E000
:100F8000DDE90D1217F8010B9047761CBBF100014B
:100F9000ABF1010BF4DC0A982146DDE90D2300F0EA
:100FA00005F806446D1C97E6092801002DE9F0417B
:100FB000044600251E461746880404D405E0394639
:100FC0002020B0476D1C641EF9D52846BDE8F0818D
:100FD0002DE9F041044600251E469046C80301D580
:100FE000302700E02027880404D505E04146384634
:100FF000B0476D1C641EF9D52846BDE8F08110B5D8
:1010000004464FF4847101EB44101021FFF72AFAD3
:1010100000BF4FF4847101EB4410FFF704FA00287D
:10102000F7D14FF4027101EB4410FF21FFF71AFAD8
:1010300010BD2DE9F04105460C4616462078FF28E4
:1010400008D16078FF2805D1A078FF2802D1E07888
:10105000FF2808D0207828B9607818B9A07808B996
:10106000E07800B10EB900275CE00127217840F656
:10107000084202EB4510FFF7F5F9617840F6085297
:1010800002EB4510FFF7EEF9A17840F6086202EB9B
:101090004510FFF7E7F9E17840F6087202EB4510DA
:1010A000FFF7E0F9310A41F2080202EB4510FFF7C1
:1010B000D9F9F1B241F2081202EB4510FFF7D2F96B
:1010C0004FF4847101EB45100421FFF7CBF900BF09
:1010D0004FF4847101EB4510FFF7A5F90028F7D113
:1010E00017E04FF4427101EB4510FFF79CF9172808
:1010F00000D116E0284600F04DF800F0080040B19D
:101100004FF4027101EB45100821FFF7ABF90027FE
:1011100007E04FF4427101EB4510FFF784F9152801
:10112000DFD100BF3846BDE8F081000070B504464D
:101130000D46E1B20548FFF734FD00BF80210348AA
:10114000FFF762FC0028F9D0204670BD003801404E
:1011500010B5044604222146900100F077FC10BD32
:101160000146024830F8110070470000EE060020EA
:1011700010B50446042221464FF4706000F066FC6E
:1011800010BD10B50446042221464FF4A06000F0C3
:101190005DFC10BD10B504464FF4027101EB441024
:1011A000FFF741F910BD70B504460025002600BFC9
:1011B00042F2086101EB4410FFF735F9064642F2AE
:1011C000087101EB4410FFF72EF900EB062086B200
:1011D0007EB142F2086101EB4410FFF724F90546A5
:1011E00042F2087101EB4410FFF71DF900EB0520F6
:1011F00085B2B542DCD1284670BD10B504464FF427
:10120000427101EB4410FFF70EF910BD70B50446B2
:101210000025002600BF42F2080101EB4410FFF751
:1012200002F9064642F2081101EB4410FFF7FBF801
:1012300000EB062086B27EB142F2080101EB4410B9
:10124000FFF7F1F8054642F2081101EB4410FFF7F1
:10125000EAF800EB052085B2B542DCD1284670BD26
:101260001CB51AA00068019040F25B744820FFF79B
:1012700019FBFFF713F9FEF7F1FFFFF7ABFCFFF7E0
:1012800075FBFFF7FDF900F0B5F900F0F1F900206A
:1012900000F068FA9DF8070000909DF806309DF870
:1012A00005209DF804100AA0FFF7E8FC214610A0D5
:1012B000FFF7E4FC14A0FFF7E1FC19A0FFF7DEFC48
:1012C00002E001A800F056FBFBE70000C0A8030203
:1012D000544350205365727665722049503A202558
:1012E000642E25642E25642E2564200D0A0000003E
:1012F0005443502053657276657220506F72743A71
:10130000202564200D0A0000573535303020496E05
:10131000697420436F6D706C657465210D0A00005F
:1013200053746172742054435020436C69656E7429
:101330002054657374210D0A000000002DE9F0416E
:1013400004460E4615460027002D15DD2A46314677
:10135000204600F015F84FF4847101EB4410402151
:10136000FFF780F800BF4FF4847101EB4410FFF7E2
:101370005AF80028F7D12F463846BDE8F081000022
:101380002DE9F04104460F4616460025A8462EB921
:10139000214618A0FFF772FCBDE8F08142F6080173
:1013A00001EB4410FFF73FF8054642F6081101EB48
:1013B0004410FFF738F800EB052085B2280200EB57
:1013C000441000F1180832463946404600F03EFB12
:1013D000A81985B2290A42F6080202EB4410FFF769
:1013E00041F8E9B242F6081202EB4410FFF73AF86E
:1013F00000BFD1E743483A20256420556E657870D8
:10140000656374656432206C656E67746820300DA6
:101410000A0000002DE9F0470446884616460025DC
:101420000027A9462046FFF79BFEB04204DA20467B
:10143000FFF796FE074600E0374600BF2046FFF75D
:10144000E5FE81464FF4427101EB4410FEF7EBFFDD
:101450000546172D03D01C2D01D0002701E0B9450A
:10146000ECDB00BF3A464146204600F049F84FF415
:10147000847101EB44102021FEF7F4FF00BF4FF40C
:10148000847101EB4410FEF7CEFF0028F7D113E082
:101490004FF4427101EB4410FEF7C5FF0546172DCE
:1014A0000AD01C2D08D011A0FFF7E8FB2046FFF75B
:1014B000A6FD0020BDE8F0874FF4027101EB441057
:1014C000FEF7B1FF00F010001028E1D14FF40271D7
:1014D00001EB44101021FEF7C5FF4FF4027101EB40
:1014E00044101021FEF7BEFF3846E3E753454E4453
:1014F0005F4F4B2050726F626C656D21210D0A00A9
:101500002DE9F04104460F4616460025A8460EB9BF
:10151000BDE8F08142F2084101EB4410FEF783FF81
:10152000054642F2085101EB4410FEF77CFF00EB48
:10153000052085B2280200EB441000F11008324665
:101540003946404600F0B6FAA81985B2290A42F297
:10155000084202EB4410FEF785FFE9B242F208525E
:1015600002EB4410FEF77EFF00BFD1E710B5044642
:1015700004222146900100F09DFA10BD10B50446EA
:1015800021464FF4D850FEF76DFF10BD10B504464C
:10159000210A4FF4C850FEF765FFE1B24FF4D05076
:1015A000FEF760FF10BD10B50446062221464FF439
:1015B000106000F07FFA10BD10B5044604222146E9
:1015C0004FF4706000F076FA10BD10B504460422A6
:1015D00021464FF4A06000F06DFA10BD70B50446CE
:1015E0000D464FF4027101EB44102946FEF73AFF15
:1015F00070BD000086B017A103C9CDE9040117A092
:101600000068039016A00068029016A00068019080
:1016100015A00068009015480399C1600299016106
:101620000199416104994160BDF81410018100994C
:10163000816100200D490877012048770020C88388
:1016400081F820000120887200210848C17206B08C
:10165000704700000008DC1111110000C0A80396BB
:10166000FFFFFF00C0A803010808080830000020A1
:101670001CB52448FFF797FF22480C30FFF7A5FF61
:1016800020481030FFF772FF1E480830FFF794FF24
:101690001D491E4800F0D2F84FF4FA60FFF776FFBC
:1016A0000320FFF76BFF01A8FFF762FD9DF807001D
:1016B00000909DF806309DF805209DF8041014A0B8
:1016C000FFF7DCFA01A8FFF75CFD9DF8070000902A
:1016D0009DF806309DF805209DF8041013A0FFF733
:1016E000CDFA01A8FFF734FD9DF8070000909DF8A2
:1016F00006309DF805209DF8041013A0FFF7BEFAF0
:101700001CBD0000340000201C000020140000203C
:101710005735353030455642204950203A2025640F
:101720002E25642E25642E25640D0A00573535308C
:101730003045564220534E203A2025642E25642EF3
:1017400025642E25640D0A00573535303045564244
:10175000204757203A2025642E25642E25642E2507
:10176000640D0A0010B5044642F6087101EB4410FE
:101770000221FEF777FE10BD2DE9F04104460D462B
:101780001646984605F00F0001280FD005F00F000F
:1017900002280BD005F00F00032807D005F00F003A
:1017A000042803D005F00F00052841D12046FFF79B
:1017B00026FC45EA0801082202EB4410FEF752FE1F
:1017C00076B1310A4FF4816202EB4410FEF74AFE13
:1017D000F1B24FF4A16202EB4410FEF743FE15E0B4
:1017E00015480088401C144908800A461288110ACE
:1017F0004FF4816202EB4410FEF734FE0E4A11787A
:101800004FF4A16202EB4410FEF72CFE4FF48471FA
:1018100001EB44100121FEF725FE00BF4FF4847157
:1018200001EB4410FEF7FFFD0028F7D1012700E08F
:1018300000273846BDE8F081240000202DE9F04162
:1018400005460E460027B846002489E0295D41F68A
:10185000087202EB4410FEF705FE315D41F60862A6
:1018600002EB4410FEF7FEFD0020404921F8140071
:101870003F4921F81400B7F5804F32DC285D042879
:1018800016D004DC012807D0022823D10AE008285A
:1018900014D010281ED117E04FF48060334921F88E
:1018A00014001DE04FF40060304921F8140017E0E7
:1018B0004FF480502D4921F8140011E04FF40050EE
:1018C0002A4921F814000BE04FF48040274921F801
:1018D000140005E04FF40060254921F8140000BF12
:1018E00000BFB8F5804F32DC305D042816D004DC30
:1018F000012807D0022823D10AE0082814D0102894
:101900001ED117E04FF48060194921F814001DE042
:101910004FF40060164921F8140017E04FF480508E
:10192000134921F8140011E04FF40050104921F838
:1019300014000BE04FF480400D4921F8140005E03D
:101940004FF400600A4921F8140000BF00BF0748A7
:1019500030F814000744064830F814008044641C32
:10196000082CFFF673AFBDE8F0810000EE06002002
:10197000FE060020F0B5ADF6040D0546002440F249
:101980005B7641F270770020FFF737FC002848D0E3
:10199000132804D0172808D01C2849D13DE032462E
:1019A00029460020FFF745FB42E00020FFF7F2FB4D
:1019B00000F0010018B101210020FFF70FFE002008
:1019C000FFF7F1FB0446002C11DD224601A900209F
:1019D000FFF7B4FC01A919A0FFF750F9224601A9AD
:1019E0000020FFF717FD214601A8FEF7C4FB1548AC
:1019F000008800F4004078B112480088C0F30D045C
:101A0000224611490020FFF705FD00200D490880FE
:101A1000611C0D48FEF7AFFB0AE00020FFF7EFFA6C
:101A200006E020233A4601210020FFF7A5FE00BF73
:101A300000BF00200DF6040DF0BD000025730D0A57
:101A4000000000002A000020260600202DE9F041B9
:101A500004460F461546002615B910A0FFF70EF9EB
:101A6000FEF7D7FCC4F30740FEF7F6FCC4F30720EB
:101A7000FEF7F2FC04F0F800FEF7EEFC002605E0AD
:101A80000020FEF7E9FCB855701C86B2AE42F7DBC9
:101A9000FEF7C4FC2846BDE8F0810000556E65786D
:101AA00070656374656432206C656E67746820309D
:101AB0000D0A00002DE9F04104460F4615460026A8
:101AC00015B910A0FFF7DAF8FEF7A3FCC4F307403E
:101AD000FEF7C2FCC4F30720FEF7BEFC04F0F801D9
:101AE000091DC8B2FEF7B8FC002604E0B85DFEF799
:101AF000B3FC701C86B2AE42F8DBFEF78FFC2846C2
:101B0000BDE8F081556E6578706563746564322058
:101B10006C656E67746820300D0A00003C1B00087D
:101B200000000020300000009C0C00086C1B000826
:101B300030000020E00A0000AC0C000800000000AB
:101B4000010203040102030406070809020406084F
:101B50000202020202020202020202020202020265
:0C1B600000000000000000000000000079
:0400000508000131BD
:00000001FF
