:020000040800F2
:100000003017002045010008FD180008AB1100085A
:10001000F9180008610F00080F2000080000000018
:10002000000000000000000000000000B91B0008F4
:10003000650F000800000000CD190008A51C00088D
:100040005F0100085F0100085F0100085F01000810
:100050005F0100085F0100085F0100085F01000800
:100060005F0100085F0100085F0100085F010008F0
:100070005F0100085F0100085F0100085F010008E0
:100080005F0100085F0100085F0100085F010008D0
:100090005F0100085F0100085F0100085F010008C0
:1000A0005F0100085F0100085F0100085F010008B0
:1000B0005F0100085F0100085F0100085F010008A0
:1000C0005F0100085F0100085F0100085F01000890
:1000D0005F010008491D00085F0100085F0100087A
:1000E0005F0100085F0100085F0100085F01000870
:1000F0005F0100085F0100085F0100085F01000860
:100100005F0100085F0100085F0100085F0100084F
:100110005F0100085F0100085F0100085F0100083F
:100120005F0100085F0100085F0100085F0100082F
:10013000DFF80CD000F01AFD00480047A930000895
:10014000301700200648804706480047FEE7FEE7D4
:10015000FEE7FEE7FEE7FEE7FEE7FEE7FEE7FEE777
:10016000A91C00083101000840EA01039B0703D0E5
:1001700009E008C9121F08C0042AFAD203E011F8E6
:10018000013B00F8013B521EF9D27047D2B201E0A8
:1001900000F8012B491EFBD270470022F6E710B58C
:1001A00013460A4604461946FFF7F0FF204610BDE5
:1001B000421C10F8011B0029FBD1801A704703462E
:1001C00011F8012B00F8012B002AF9D118467047CD
:1001D0000FB400B58DB010A909900B9000914FF0AD
:1001E000FF300A9000200C900548069005480790C3
:1001F0006A4609A80F9900F07FFB0DB05DF814FB6B
:1002000015090008330900082DE9FF4F087883B06D
:100210009946FF2805D0491C2D2804D00024002031
:1002200008E000200BE00124F9E700EB800003EB7D
:100230004000491C0B78FF2BF7D104B1404200234A
:100240000293147819461D462D2C01D02B2C04D175
:10025000521C2D2C13D000240294AA461478FF2C93
:100260000FD00A25A3FB057801FB05814FF0000C98
:1002700003FB0C11521CE3194AEB0101EEE70124C8
:10028000EAE7814453EA010002D019F5C87F06DA93
:1002900003980021C0E9001107B0BDE8F08F0025E8
:1002A000AE4E2F46DFF8B882184600F01FFCCDE9AD
:1002B0000001B9F1000002DAC9F1000400E00446CF
:1002C0000023A74A1AEB030B42EB045A12E0E007A3
:1002D00007D02A4633463846414600F0ECF9074637
:1002E00088462A4633461046194600F0E4F905468A
:1002F0000E466410002CEAD1DDE90001B9F1000FCF
:100300005A46534606DA00F082FB3A46434600F06E
:100310007EFB05E000F0CFF93A46434600F0CBF90A
:10032000029A0AB181F00041039AC2E90001B3E7E1
:100330002DE9FF4F1F468DB0D7E901464FF0FF383A
:100340002E2045464FF000090B90B9696D1C0E98A0
:100350008847396A824688470028F6D1BAF1FF3FBC
:100360000AD024F4D064002E11DDBAF12B0F08D08E
:10037000BAF12D0F0BD102E0404611B08DE744F4E5
:100380008064B9696D1C0E9888478246761E69465E
:10039000600501D52D2000E02B208DF8000001F133
:1003A000010B0DF1200809E0B9696D1C0E98884712
:1003B00082460F9844F40074761E0560002E02DD1C
:1003C000BAF1300FF0D00B998A453ED144F0800449
:1003D00006E00F99681CA9F1010944F40074086053
:1003E000B9696D1C761E0E98884782463028F0D079
:1003F0002BE00B998A4505D1200603D444F08004F4
:10040000761E18E0504601F0B7FF08B30DF1130156
:10041000761E44F400748B4508D2AAF130000BF824
:10042000010B200607D5A9F1010003E0200602D444
:1004300009F101008146A00502D50F99681C0860EA
:10044000B9696D1C0E9888478246002ED1DC53E0B6
:10045000002E51DDBAF1650F02D0BAF1450F4BD134
:10046000A00549D5B9696D1C24F44074761E0E9818
:1004700088478246002E0CDD2B2804D0BAF12D0FC0
:1004800007D144F48074B9696D1C0E988847824680
:10049000761EE00501D52D2100E02B2108F8011B77
:1004A000CDF82C8021E00DF12901761E44F4007472
:1004B00088450CD2AAF1300010F0FF0088F8000047
:1004C00002D10B99884509D908F1010806E0E00539
:1004D00001D5244801E042F20F708146B9696D1CD4
:1004E0000E98884782460F980560002E04DD50461E
:1004F00001F042FF0028D6D1F9690E988847FF2005
:100500008BF8000088F800000020069007904B460A
:100510006A4608A906A8FFF777FEA00502D46FF087
:1005200001002AE714F0240F0AD0E00714D1DDE916
:1005300006123868031D3B600068C0E900120BE03A
:10054000DDE9060100F0F6FA0146E00704D138685B
:10055000021D3A600068016028460EE70000144062
:100560000000F03FF1D8FFFF2DE9FE4F804681EA01
:100570000300C00F0C46009021F0004123F000451D
:10058000B8EB0200A94105D24046214690461C46E0
:100590000B46024623F00040104347D0270DC7F317
:1005A0000A00C3F30A510290401A019040286BDA06
:1005B000C3F3130040F4801B0098924620B100233F
:1005C000D2EB030A63EB0B0B01985946C0F14002D2
:1005D000504600F05AF906460D4650465946019AD3
:1005E00000F072F910EB08006141002487EA115213
:1005F00084EAE7731A4340D0009A62B3019A012A51
:100600004FEA075215DC001B61EB02014FF000427C
:1006100002EA0752CDE90042001C41F58011324642
:100620002B4600F0A6F903B0BDE8F08F4046214606
:10063000F9E7001B61EB0201001C41F58013001873
:100640005B412018A2F5001747EB030140EAD57083
:10065000B6196D4111E06D084FEA360645EAC075DE
:100660004FEA0752001B61EB0201001C41F58011AB
:1006700049084FEA30000019514132462B4603B079
:10068000BDE8F04F00F066B9009801224000002359
:10069000D0EB020263EBE073009821464FEAE0746E
:1006A000B8EB000061EB0401E9E783F000435BE78E
:1006B00081F0004158E72DE9FE4F81EA030404F080
:1006C000004421F0004100944FF0000B23F0004360
:1006D00050EA01045ED052EA03045BD0C3F30A542B
:1006E000C1F30A552C44A4F2F3340194A0FB025444
:1006F000C1F3130141F48011C3F3130343F48013D6
:1007000001FB024400FB034E840A970A44EA815429
:1007100047EA8357A4FB076802958D0A05FB078506
:100720004FEA932C04FB0C542705029D4FEA065810
:1007300047EA1637B5EB08056EEB070C870E920EED
:1007400047EA811742EA8312A7FB0201B6EB0B01CD
:1007500064EB00042B0D43EA0C335E1844EB1C5091
:10076000DA465146E7FB0201C5F313044FEA0B33A7
:1007700043EA14534FEA0432019C43EA0603A4F10E
:100780000C040294009CCDE900B400F0F2F803B030
:10079000BDE8F08F00200146F9E7000030B5041EE7
:1007A00071F1000404DB4FF00044404264EB0101AE
:1007B000141E73F1000405DB1C464FF00043524247
:1007C00063EB04038B4208BF824230BD30B5041E88
:1007D00071F1000404DB4FF00044404264EB01017E
:1007E000141E73F1000405DB1C464FF00043524217
:1007F00063EB0403994208BF904230BD30B50B460D
:10080000014600202022012409E021FA02F59D4240
:1008100005D303FA02F5491B04FA02F52844151E14
:10082000A2F10102F1DC30BD2DE9F05F05460020A8
:1008300092469B4688460646814640241BE0284651
:1008400041464746224600F02FF853465A46C01A02
:10085000914110D311461846224600F016F82D1A81
:1008600067EB01084F4622460120002100F00DF8F9
:1008700017EB00094E41201EA4F10104DFDC4846BD
:1008800031462A464346BDE8F09F202A04DB203A41
:1008900000FA02F1002070479140C2F1200320FAD3
:1008A00003F3194390407047202A04DB203A21FAD1
:1008B00002F00021704721FA02F3D040C2F1200279
:1008C0009140084319467047202A06DBCB17203A8F
:1008D00041FA02F043EAE07306E041FA02F3D04045
:1008E000C2F1200291400843194670470268114442
:1008F0001378016018467047D1600449516104497A
:10090000116200211161114600F048B9ED0800089C
:10091000910B0008426842B1016811F8013B23B114
:10092000521EC0E90012184670470121C160881E9E
:10093000704742685AB1C368016843B983688B4203
:1009400005D0491E521CC0E90012002070474FF02C
:10095000FF30704710B5141E73F1000408DA401C14
:1009600041F1000192185B411A4301D120F00100CE
:1009700010BD2DE9F04D92469B4611B1B1FA81F2BE
:1009800002E0B0FA80F220329046FFF77EFF044684
:100990000F4640EA0A0041EA0B0153465A46084313
:1009A00013D0114653EA010019D0C8F14002504655
:1009B000FFF77AFF05460E46504659464246FFF776
:1009C00064FF084305D0012004E020463946BDE815
:1009D000F08D0020054346EAE0762C4337430A9821
:1009E0006305E40AA0EB08000022FD0A44EA47542C
:1009F0000A3002D500200146E9E7010510196941D6
:100A0000DDE9084500196941BDE8F04DA2E72DE98F
:100A1000F04D81EA030404F0004B21F00045144638
:100A20004FF0000A23F0004150EA050220D054EABA
:100A300001021DD0C5F30A570246C5F31303C1F3E3
:100A40001300C1F30A5640F4801543F48013A7EB5A
:100A50000608101BD64608F2FD3873EB050002D3DA
:100A600008F1010801E092185B41B8F1000F03DAC8
:100A700000200146BDE8F08D00204FF480110646AD
:100A800084460EE0171B73EB050705D3121B63EBBF
:100A9000050306434CEA010C49084FEA300092185E
:100AA0005B4150EA0107EDD152EA030012D082EA1D
:100AB000040083EA0501084305D0101BAB4106D2B0
:100AC0000122002306E000224FF0004302E06FF015
:100AD000010253101AEB06004CEB085110EB0A0010
:100AE00041EB0B01BDE8F04DFFF734BF0EB540F20E
:100AF000334202920022CDE900221346FFF739FF6C
:100B000003B000BDC1F30A52C1F3130140F2FF3339
:100B100041F480119A4202DA00200146704740F207
:100B200033439A42A2F2334202DC5242FFF7BCBE88
:100B3000FFF7ABBE01F0004330B421F0004150EAB2
:100B4000010206D00A0DA2F56072C1F31301002A5A
:100B500002DC30BC00207047440F44EAC104C100ED
:100B6000E01830BC00EBC25000F0AEB9064C074DA7
:100B700006E0E06840F0010394E80700984710346D
:100B8000AC42F6D3FFF7D8FAC8450008E84500089C
:100B9000C0B24FF4F05100F0CFB900002DE9F34F8F
:100BA0008BB04FF0000801F10C000C464FF0010B28
:100BB00046460DF1080A01906269012101989047AB
:100BC000051E2DD0252D2CD0216A8847C0B1626921
:100BD000012101989047216A88470028F7D1411EDA
:100BE00062690198904700E0761CA1690B988847DC
:100BF000216A88470028F7D1E1690B988847DBE72D
:100C0000A1690B9888470746A84201D1761CD3E713
:100C1000E1690B9888477F1C02D1B8F1000F6FD0B3
:100C200046E1002762693D463946019890472A28E7
:100C300004D162690121019890470125DFF884926F
:100C40006269012101989047A0F130010A290AD276
:100C50004F45E5DC07EB870100EB4107303FDFD470
:100C600045F01005ECE7E90601D46FF000476C2869
:100C70000AD04C2814D0682815D06A280DD07428C2
:100C80001CD07A281AD01DE0626901210198904792
:100C90006C2802D045F0040514E045F002050DE093
:100CA00045F020050AE06269012101989047682813
:100CB00002D045F0080505E045F4006562690121B0
:100CC00001989047C4E9015765283DD019DC5828A0
:100CD0007AD00CDC452837D004DC252826D04128E2
:100CE00031D131E046282FD047282CD12CE05B2889
:100CF00077D0612828D063287CD0642823D15AE09B
:100D0000D0E06F2848D008DC66281DD067281BD0AB
:100D1000692821D06E2816D127E0702845D0732885
:100D200068D0752847D078280DD14DE0A1690B987F
:100D30008847054625283FF469AFE1690B98884745
:100D40006D1C3FF46AAFB3E023466A466FF00100C2
:100D50000B99FFF7EDFA9EE045F040006060A807B0
:100D600023464FF0000236D43EE0E8077FF447AF59
:100D70002068011D21600068290501D506701BE768
:100D8000290701D5068017E7A90703D5F117C0E9A0
:100D9000006111E706600FE745F040006060A807BA
:100DA00023464FF0080216D41EE040F60E0125EA55
:100DB0000100606016E045F040006060A80723462F
:100DC0004FF00A0207D40FE045F040006060A8072A
:100DD00008D5234610226FF001000B99AFF3008075
:100DE00059E007E0234610226FF001000B99AFF3A2
:100DF000008050E04FF000094F464B46632802D078
:100E00005B2806D040E0E80601D40120A06001275D
:100E10003AE062690121019890475E2805D14FF0C0
:100E200001096269494601989047216939B9002151
:100E30000A46534643F82120491C0829FADBB0B37F
:100E4000216969B9C11700EBD16253110AEB830123
:100E500022F01F02821A01200B68904003430B60AE
:100E600062690121019890475D28E8D1B9F1000F2E
:100E700009D00020514651F82020D24341F82020CB
:100E8000401C0828F7DB02AB224600976FF00100F8
:100E90000B99AFF3008000280CDA401C08D1BBF19D
:100EA000000F05D04FF0FF300DB0BDE8F08FFFE729
:100EB0004046F9E7E90701D108F1010806444FF07F
:100EC000000B79E6CCCCCC0C0029A8BF7047401CA5
:100ED000490008BF20F00100704710B4B0FA80FC50
:100EE00000FA0CF050EA010404BF10BC704749B18D
:100EF000CCF1200421FA04F411FA0CF118BF0121FD
:100F000021430843A3EB0C01CB1D4FEA00614FEADC
:100F1000102042BF002010BC704700EBC3501044AB
:100F20000029A4BF10BC7047401C490008BF20F036
:100F3000010010BC704700007F2801D9002208E0A2
:100F4000064A02EB5002C007127800D1120902F0E3
:100F50000F020120904008407047000088450008BB
:100F600000BFFEE77047000001460D4A12884A4361
:100F70004FF0E0235A6100229A6101221A6100BFFA
:100F80004FF0E022106900F001021AB100F4803243
:100F9000002AF5D000224FF0E0231A619A617047D1
:100FA0002800002010B5044604E04FF47A70FFF7E3
:100FB000DBFF641E002CF8D110BD000001460D4A75
:100FC00012784A434FF0E0235A6100229A610122CD
:100FD0001A6100BF4FF0E022106900F001021AB15F
:100FE00000F48032002AF5D000224FF0E0231A618D
:100FF0009A6170472600002008B501211D2000F0ED
:10100000F7FC0F20ADF8000003208DF8020010203F
:101010008DF8030069461A4800F038F80121184895
:1010200000F0BFF80221164800F0BBF80421144874
:1010300000F0B9F80821124800F0B5F84FF400703C
:10104000ADF8000003208DF8020010208DF8030099
:1010500069460C4800F01AF84FF40071094800F096
:10106000A2F84020ADF8000003208DF802004820CF
:101070008DF803006946044800F008F808BD000038
:1010800000080140000C0140001001402DE9F04132
:10109000024600250026002000230024002791F8A6
:1010A00003C00CF00F0591F803C00CF0100CBCF15C
:1010B000000F03D091F802C04CEA050591F800C07A
:1010C000BCF1000F31D0146800202BE04FF0010C70
:1010D0000CFA00F3B1F800C00CEA03069E4220D1DE
:1010E00083004FF00F0C0CFA03F7BC4305FA03FC26
:1010F0004CEA040491F803C0BCF1280F06D14FF06C
:10110000010C0CFA00FCC2F814C00AE091F803C00C
:10111000BCF1480F05D14FF0010C0CFA00FCC2F8ED
:1011200010C0401C0828D1D31460B1F800C0BCF135
:10113000FF0F34DD546800202EE000F1080C4FF062
:10114000010808FA0CF3B1F800C00CEA03069E424D
:1011500021D183004FF00F0C0CFA03F7BC4305FAC2
:1011600003FC4CEA040491F803C0BCF1280F05D13C
:1011700000F1080C08FA0CF8C2F8148091F803C0CA
:10118000BCF1480F07D100F1080C4FF0010808FA34
:101190000CF8C2F81080401C0828CED35460BDE87B
:1011A000F081416170470161704700BFFEE710B5F3
:1011B000002000F02FFF10BD10B5012000F02AFF25
:1011C00010BD70B504460025FFF7F1FFC4F30740DA
:1011D00000F010F8C4F3072000F00CF804F0F80059
:1011E00000F008F8002000F005F80546FFF7E4FFDE
:1011F000284670BD10B50446204600F089FC10BD9D
:1012000070B504460D46FFF7D2FFC4F30740FFF761
:10121000F1FFC4F30720FFF7EDFF04F0F801091D0B
:10122000C8B2FFF7E7FF2846FFF7E4FFFFF7C4FF68
:1012300070BD00002DE9F04F97B004460D461646EC
:101240001F46DDE9219ADDF880804FF0FF3B5822F0
:101250000B4901A8FEF788FF0494A8B2ADF81C0062
:101260008DF81E601197CDF8508001AA514648466E
:1012700000F046F98346584617B0BDE8F08F0000ED
:10128000304500082DE9FF5F06460C461746984694
:10129000DDE90FABDDF83890002003901198029043
:1012A000002500200190009002A802F0B1FA8DF80C
:1012B0000C000398C0F30310032800D032E0039819
:1012C000C0F3C00030700398C0F341002060039861
:1012D00000F0010038706946029800F093F8019020
:1012E0000299084402900099029845182A4602A9DA
:1012F000484602F0A1FA10B10298281A00D511E070
:101300002068002804DD02A802F089FAA8F800008D
:101310000298281ACBF800000298CAF800000120B1
:10132000019000BF019804B0BDE8F09F2DE9F0479F
:101330000446254601F040FC804601F03DFC07468E
:1013400001F03AFC8246284601F042FC81464A46BA
:101350000DA1404601F020FC3A460EA1404601F0A6
:101360001BFC0EA001F034FC81464A460DA1384614
:1013700001F012FC404601F07FFC0646404601F0B9
:1013800041FC3046BDE8F087746F4465766963655B
:101390000000000064617461000000006F6E6C6901
:1013A0006E65000073746174650000002DE9F843F8
:1013B00005460C46012600270020206000BF4FF0A4
:1013C000FF38781C0746042801DD00BF17E0012123
:1013D0006846A8478046B8F1010F00D00FE09DF89D
:1013E000001001F07F01206801FB06002060F6017B
:1013F0009DF8000000F080000028E0D100BF3846D2
:10140000BDE8F88370B504460D46034804602946DC
:101410000248FFF7CBFF70BD2C000020712B0008A5
:1014200030B50246002300BF0846CD1701EB5565D5
:10143000ED11A1EBC515ECB2CD1701EB5565E91126
:10144000002901DD44F0800418465B1C1454002977
:10145000EADC184630BD0000401C802801DA401C40
:101460000AE0B0F5804F01DA801C05E003498842AC
:1014700001DAC01C00E0001D70470000FFFF1F00E4
:101480002DE9FC4104460F4615464FF0FF38002079
:1014900001900026009001212046A847012800D095
:1014A0001EE0012669462846FFF780FF601C009970
:1014B000FFF7B6FF064400983044B84200DD0FE065
:1014C000009830B1A0190099A8470099884200D02F
:1014D00006E020788DF804000198C0F3031800BFDF
:1014E0004046BDE8FC8108B501464FF0FF300022C0
:1014F00000920A788DF80020009AC2F3031008BD0C
:101500002DE9FE4305460E46144602950020019043
:10151000009000274FF0FF38204600F0A5F807465E
:101520008146FFF799FFB04202DD6FF001088FE0BE
:1015300000208DF80400019820F0F0001030019098
:101540009DF8041002A802F0B5FF39460298FFF793
:1015500067FF029908440290207A042808D13EA12E
:1015600002A802F093FF042102A802F0A3FF07E003
:101570003BA102A802F08AFF032102A802F09AFF11
:1015800000208DF80000A17E009861F341000090DA
:10159000E07E08B1012100E00021009861F38200A3
:1015A00000900098C0F3800058B194F83D10009866
:1015B00061F3C400009094F83C10009861F345106A
:1015C0000090206C08B9A06C20B1009820F0800039
:1015D00080300090E06C08B9606D20B1009820F078
:1015E0004000403000909DF8001002A802F062FF19
:1015F000218B02A802F064FF02A8D4E90423E16869
:1016000002F076FFE07E58B102A8D4E90A23616AAD
:1016100002F06EFF02A8D4E90D23216B02F068FFEF
:101620000098C0F3C01028B102A8D4E91123216C9E
:1016300002F05EFF0098C0F3801028B102A8D4E940
:101640001423E16C02F054FF0298A0EB050800BFE0
:101650004046BDE8FE8300004D5154540000000098
:101660004D5149736470000070B504460025207A1E
:10167000032801D10C2503E0207A042800D10A2593
:10168000D4E90412E06800F02BF9801C0544E07EE8
:1016900068B1D4E90A12606A00F022F9861CD4E924
:1016A0000D12206B00F01CF93044801C0544206CA6
:1016B00008B9A06C30B1D4E91112206C00F010F917
:1016C000801C0544E06C08B9606D30B1D4E9141297
:1016D000E06C00F005F9801C0544284670BD2DE93A
:1016E000F04F87B005460F4690461C46DDE915B61B
:1016F000DDE9109A0695002005900490039000966D
:10170000204612A90EC900F042F804900290FFF79B
:10171000A3FEB84203DD6FF00100039033E00598AB
:1017200020F0F00030300590059868F3C300059074
:10173000059864F342000590059869F30000059050
:101740009DF8141006A802F0B5FE04990698FFF75C
:1017500067FE06990844069006A812A90EC902F071
:10176000C7FE002C03DD514606A802F0A9FE324652
:1017700059460698FEF7F8FC0698304406900698FD
:10178000401B039000BF039807B0BDE8F08F7FB502
:101790000546089E002401A807C800F0A1F8801C97
:1017A00030440444002D00DDA41C204604B070BD6C
:1017B0002DE9FF5F05460E4617469846DDE90E9A6D
:1017C0000395002002900190009000245146484665
:1017D00000F046F883460190FFF73EFEB04202DD7E
:1017E000A01E009038E000208DF80800029820F03C
:1017F000F00080300290029867F3C30002900298D4
:1018000020F00600801C02909DF8081003A802F04A
:1018100051FE01990398FFF703FE039908440390D2
:10182000414603A802F04CFE00240FE004EB440004
:101830000AEB800C03A89CE80E0002F059FE1098F9
:1018400010F8241003A802F035FE641C4C45EDDBB3
:101850000398401B009000BF009804B0BDE8F09FC3
:101860002DE9F04105460E46022700240AE004EB6C
:10187000440006EB800393E8070000F031F8C01C39
:101880000744641CAC42F2DB3846BDE8F0812DE928
:10189000FF439FB004460D4616464FF0FF38012720
:1018A00000200390049005902046FEF781FC8146BD
:1018B0004A46214606A8FEF757FC06A8039022A830
:1018C00003A901223B46CDE90021029000223146C6
:1018D0002846FFF76DFF8046404623B0BDE8F08301
:1018E00037B50024009820B10098FEF761FC04464B
:1018F00000E0019C20463EBD00BFFEE7704708B5F2
:101900004FF4C06000F04EF825208DF80000012053
:101910008DF8010000208DF8020001208DF80300F1
:10192000684600F007F800214FF0006000F044F82E
:1019300008BD000070B5002100230F22C47804B355
:10194000154C246804F4E064C4F5E064210AC1F194
:101950000403CA40447804FA03F184781440214314
:1019600009010E4C0678A155047804F01F050124E6
:10197000AC4005786D11AD0005F1E025C5F80041DA
:1019800009E0047804F01F050124AC40044D0678FA
:10199000761145F8264070BD0CED00E000E400E053
:1019A00080E100E002490143024A116070470000F3
:1019B0000000FA050CED00E0024A0A400243024B27
:1019C0001A60704780FFFF1F08ED00E070470000BD
:1019D00029B1064AD2690243044BDA6104E0034AA2
:1019E000D2698243014BDA61704700000010024067
:1019F00029B1064A92690243044B9A6104E0034A02
:101A000092698243014B9A617047000000100240C6
:101A100030B500210022002400232D4D6D6805F013
:101A20000C0121B1042905D0082923D105E0294D55
:101A3000056022E0274D05601FE0254D6D6805F427
:101A40007012234D6D6805F48034022505EB924237
:101A50001CB9214D554305600BE01D4D6D6805F423
:101A600000351DB11C4D5543056002E0194D55432D
:101A7000056002E0174D056000BF00BF144D6D68A2
:101A800005F0F0010909154D6B5C0568DD40456006
:101A90000F4D6D6805F4E061090A104D6B5C4568F7
:101AA000DD4085600A4D6D6805F46051C90A0B4D33
:101AB0006B5C4568DD40C560054D6D6805F44041CF
:101AC000890B074D6B5CC568B5FBF3F5056130BD4F
:101AD0000010024000127A0000093D0000000020C2
:101AE0001000002010B54FF400710848FFF759FBB3
:101AF0000220FFF763FA4FF400710448FFF753FB2D
:101B00004FF4C860FFF730FA10BD0000000C014030
:101B100010B5044600BF02210A4800F021F8002851
:101B2000F9D02146074800F027F800BF01210548F9
:101B300000F016F80028F9D0024800F01AF8C0B2F8
:101B400010BD00000038004021B1028842F0400280
:101B5000028004E002884FF6BF731A40028070478B
:101B60000246002013890B400BB1012000E0002049
:101B700070470146888970478181704710B50022FF
:101B8000028802F441520B884C8823438C882343FB
:101B9000CC8823430C8923434C8923438C892343DA
:101BA000CC8923431A430280838B4FF2FF74234076
:101BB00083830B8A038210BD704710B500F002F8D2
:101BC00010BD00000CB50020019000903348006863
:101BD00040F480303149086000BF3048006800F4AC
:101BE000003000900198401C0190009818B90198AD
:101BF000B0F5A06FF1D12948006800F4003010B1B1
:101C00000120009001E0002000900098012843D1BD
:101C10002348006840F01000214908600846006829
:101C200020F0030008600846006840F002000860E9
:101C30001A484068194948600846406848600846A4
:101C4000406840F4806048600846406820F47C109A
:101C500048600846406840F4E8104860084600685C
:101C600040F08070086000BF0C48006800F0007011
:101C70000028F9D00948406820F00300074948606F
:101C80000846406840F00200486000BF03484068D2
:101C900000F00C000828F9D10CBD00000010024033
:101CA000002002407047000010B51348006840F063
:101CB00001001149086008464068104908400E4973
:101CC0004860084600680E4908400B49086008460D
:101CD000006820F4802008600846406820F4FE0078
:101CE00048604FF41F008860FFF767FF4FF0006007
:101CF0000449086010BD0000001002400000FFF819
:101D0000FFFFF6FE08ED00E04FF0E021096921F049
:101D100004014FF0E0221161C21700EB5272C2F3CE
:101D2000C702074B1A701946097801EB4102C2EB52
:101D3000C1114FF6FF7202EAC101024A11807047D9
:101D4000260000202800002010B540F225511D4833
:101D500000F099F810B31B4800F050F9C4B21A48CB
:101D6000008800F40040C8B91748008800F480409B
:101D700060B10A2C03D000201349088020E01248EB
:101D8000008840F400401049088019E00D2C06D16D
:101D90000D48008840F480400B49088010E00A4854
:101DA0000088C0F30D0009490C5407480088401C06
:101DB0000549088008460088C72801DD0020088002
:101DC00010BD0000003801402A0000204606002017
:101DD00000B585B0012144F20500FFF709FE182087
:101DE0008DF803004FF40070ADF8000003208DF86B
:101DF000020069461548FFF749F904208DF80300F1
:101E00000002ADF8000069461048FFF73FF94FF4B3
:101E1000E13001900020ADF80800ADF80A00ADF8FF
:101E20000C00ADF810000C20ADF80E00012240F2BD
:101E30002551074800F051F801A9054800F072F853
:101E40000121034800F006F805B000BD000801407C
:101E50000038014021B1828942F40052828104E0BD
:101E600082894DF6FF731A40828170470246002036
:101E7000B1F5007F00D100BF13880B400BB10120EA
:101E800000E00020704770B50246002400230025C2
:101E9000002040F66A16B14200D100BFC1F34215DE
:101EA00001F01F03012606FA03F3012D02D19689E2
:101EB000334006E0022D02D1168A334001E0968AB3
:101EC00033400C12012606FA04F41688344013B18C
:101ED0000CB1012000E0002070BDF0B503460024E5
:101EE00000260025002040F66A17B94200D100BF45
:101EF0001846C1F3421401F01F06012707FA06F540
:101F0000012C01D10C3004E0022C01D1103000E092
:101F100014301AB107682F43076002E00768AF4327
:101F20000760F0BD2DE9F04786B005460E46002457
:101F3000A24600BFA1460027B08900B100BF2F46CE
:101F40002C8A4CF6FF700440F08804432C82AC8944
:101F50004EF6F3100440B088318908437189084374
:101F60000443AC81AC8A4FF6FF400440B08904437F
:101F7000AC8201A8FFF74CFD1F48874202D1DDF873
:101F800010A001E0DDF80CA0A88900F4004040B1E9
:101F90000AEBCA0000EB0A1031684900B0FBF1F807
:101FA00007E00AEBCA0000EB0A1031688900B0FBB9
:101FB000F1F86420B8FBF0F004012009642101FB72
:101FC0001089A88900F4004040B1322000EBC9001C
:101FD000B0FBF1F000F00700044308E0322000EB12
:101FE00009106421B0FBF1F000F00F0004432C81D4
:101FF00006B0BDE8F087000000380140014688883F
:10200000C0F308007047C1F308028280704700BF28
:10201000FEE7000010B504462CB94FF48051054886
:10202000FFF7BFF805E0012C03D121030148FFF7BA
:10203000BAF810BD000C014000B587B0012188033B
:10204000FFF7C6FC01210920FFF7D2FC4FF46040E6
:10205000ADF8040003208DF8060018208DF8070065
:1020600001A91D48FFF712F84FF48050ADF80400A5
:1020700003208DF8060010208DF8070001A91648EE
:10208000FFF704F84FF480511348FFF78CF8002055
:10209000ADF808004FF48270ADF80A000020ADF8EA
:1020A0000C00ADF80E00ADF810004FF40070ADF864
:1020B00012000820ADF814000020ADF8160007202B
:1020C000ADF8180002A90548FFF758FD01210348A3
:1020D000FFF73AFD07B000BD000C0140003800409A
:1020E0000FB4054B10B503A9044A029800F04CF94F
:1020F00010BC5DF814FB0000212F000844000020F4
:102100000FB4084B10B504A902AA039800F03CF9DB
:10211000044602A9002000F0CEFC204610BC5DF869
:1021200014FB0000B72A000830B528B1144C031F77
:10213000002021680A4605E0084630BD9A4203D8CF
:1021400010465268002AF9D1002800D041680BD00F
:102150000468A3EB0005A54204D11B681C44034698
:10216000046002E0436000E023603AB11C68D51AC5
:10217000A54203D115682C441C6052685A6030BDDA
:10218000480000202DE9F04782460F4C10480D4EC4
:102190000E4F001B4FF0000820F007054FF001091B
:1021A00000221146504600F057FF002802D1306847
:1021B00010B10020BDE8F0873C60C4E90058C6F8C3
:1021C0000090EDE74C00002034070020480000207C
:1021D0003013002002E008C8121F08C1002AFAD1FB
:1021E00070477047002001E001C1121F002AFBD197
:1021F000704700002DE9FF5F82B00021DDE9043067
:10220000020DDDF840B0034318D044F61050A2F29E
:10221000FF3242431514119801281FD0A5EB0B0083
:10222000401C5FEA000A4FF000064E4FDFF838917D
:10223000B046504615D5CAF1000413E011980124A8
:102240004AA3012801D16FEA0B010298119AC0E953
:102250000031C0E9024206B0BDE8F09FCBF10000BA
:10226000DFE704460021404A491842EB0450CDE91B
:10227000001012E0E00707D032463B464046494690
:10228000FEF719FA8046894632463B461046194603
:10229000FEF711FA06460F466410002CEAD1DDE97C
:1022A0000401DDE90023BAF1000F06DAFEF703FAB4
:1022B00042464B46FEF7FFF905E0FEF7A8FB424613
:1022C0004B46FEF7A4FB04460E460022284BFEF7C1
:1022D0007DFA03D84FF0FF30014607E00022254B7E
:1022E00020463146FEF740F9FEF70CFC102409E0C9
:1022F000002C0ADB0A220023FEF796FA039B3032F9
:102300001A55641E50EA0102F2D1641C039AC4F10A
:1023100011031444119A012A03D0012208430DD15C
:102320000AE0084304D000204FF0110B119072E72F
:10233000A3EB0B056D1E0DE05B4504DD4FF00002C5
:1023400005F1010504E003DA4FF00002A5F10105F3
:10235000002AECD002981199C0E90231C0E9004589
:1023600079E70000000014400000F03F300000005A
:102370000000F0430000E03F30380A2801D201207D
:1023800070470020704700002DE9FF4F95B09B4635
:102390008946064600250FE2252877D100242746E6
:1023A000F84A0121059400E0044316F8013F203B60
:1023B00001FA03F01042F7D130782A2811D06FF0DB
:1023C0002F033078A0F13002092A16D8059A44F07C
:1023D000020402EB820203EB42021044761C0590D9
:1023E000EFE759F8042B0592002A03DA504244F42F
:1023F0000054059044F00204761C30782E2816D143
:1024000016F8010F44F004042A280DD06FF02F02B3
:102410003078A0F13003092B09D807EB870302EBD2
:102420004303C718761CF3E759F8047B761C307811
:102430006C280FD006DC4C2817D068280DD06A28ED
:1024400014D104E0742810D07A280FD10DE044F4A0
:1024500000140AE044F4801401E044F4401472785B
:10246000824202D104F58014761C761C30786628EE
:102470000BD013DC582877D009DC002875D045280C
:10248000F6D04628F4D047281AD19DE118E06328F9
:1024900035D0642879D0652812D195E1702873D0A1
:1024A00008DC6728F1D069286FD06E280DD06F281E
:1024B00006D1B5E073282CD0752875D0782874D053
:1024C0005A46179990476D1C75E1C4F302500228D3
:1024D00009D003280DD0D9F8001004280DD00D60C4
:1024E00009F1040967E1D9F80010EA17C1E90052BF
:1024F000F6E7D9F800100D80F2E70D70F0E719F853
:10250000041B8DF8001000208DF80100EA46012020
:1025100003E059F804AB4FF0FF3061074FF00001C2
:1025200002D40DE008F101018846B9420FDA804576
:10253000F8DB1AF808100029F4D108E008F10101CD
:1025400088468142FADB1AF808100029F6D105986E
:102550005B46A0EB080721463846179A00F094FA2C
:10256000284400EB080507E04DE029E10DE01AF8EA
:10257000010B5A4617999047B8F10108F7D25B460C
:1025800021463846179A13E142E00A220092C4F32A
:1025900002524FF0000A022A08D059F804CB032A4D
:1025A0004FEAEC710AD00DE029E02AE009F10701B9
:1025B00021F00702F2E802C1914609E00FFA8CFC13
:1025C0004FEAEC71042A03D14FFA8CFC4FEAEC710C
:1025D000002907DA0A460021DCF1000C61EB020158
:1025E0002D2202E0220504D52B228DF804200122A1
:1025F00003E0E20701D02022F7E7904659E00A21E4
:1026000002E010220DE010214FF0000A00910BE0D3
:1026100010224FF0000A44F004040827009203E05F
:1026200008224FF0000A0092C4F30252022A05D099
:1026300059F804CB0021032A08D009E009F1070169
:1026400021F00702F2E802C1914605E01FFA8CFC76
:10265000042A01D10CF0FF0C4FF00008220728D506
:10266000702806D0009B83F0100353EA0A0305D0BC
:102670000EE040228DF80420012208E05CEA01020D
:1026800006D030228DF804208DF8050002229046F5
:10269000009B83F0080353EA0A030AD15CEA0102B3
:1026A00001D1620705D530228DF804204FF00108D2
:1026B0007F1E582804D034A003900EA802900DE08D
:1026C00036A0F9E753466046009AFEF7ADF8844617
:1026D0000398825C0298401E029002705CEA01003E
:1026E000F0D1029806A9081A00F1200A600702D565
:1026F00024F4803400E00127574502DDA7EB0A00EF
:1027000000E0002000EB0A01009005984144401AC7
:102710000590E00306D45B462146179A059800F021
:10272000B3F90544002706E001A85A46C05D179991
:1027300090476D1C7F1C4745F6DBE0030CD55B46DC
:102740002146179A059800F09FF9054404E03020CF
:102750005A46179990476D1C0099481E0090002911
:10276000F5DC08E0029802995A460078491C02916B
:10277000179990476D1CBAF10001AAF1010AF1DC2A
:1027800065E1000009280100303132333435363735
:1027900038396162636465660000000030313233AD
:1027A000343536373839414243444546000000004D
:1027B00000F058F90544761C307800287FF4ECAD21
:1027C00019B02846BDE8F08F620700D4062709F14A
:1027D000070222F0070CFCE80223E14603F0004860
:1027E0005FEA080C02D00FF2702C0DE05FEA045C87
:1027F00002D50FF2682C07E05FEAC47C02D00FF22A
:10280000602C01E0AFF2700C4FF0FF3823F0004372
:10281000CDF850C065280CD006DC452809D04628E4
:102820001DD047283DD13DE0662818D067287ED1CD
:1028300038E00021112F01DB112000E0781CCDE9E8
:10284000000106A90EA8FFF7D5FCDDE90F010E9ADD
:1028500003910021009207F1010A04914DE04FF02D
:1028600000400097CDE9011006A90EA8FFF7C2FCB1
:10287000DDE90F0203920E9B11990022DDF80CA0F6
:102880000093049211B9791C00EB010AB7EB0A001E
:1028900004D4C0F1FF3007F1010A0490AAEB07004D
:1028A000019044E0012F00DA01270021112F01DD02
:1028B000112000E03846CDE9000106A90EA8FFF777
:1028C00099FCDDE90F010E9A039100210491009219
:1028D000BA4621070CD40399514500DA8A46BAF169
:1028E000010F05DD009AAAF10101515C302908D0E1
:1028F000B84202DA10F1040F06DA0121CDE9011025
:1029000015E0AAF10101E9E7002805DC049901447A
:102910000491AAEB000102E0411C514500DD8A460A
:102920000499401A401C01904FF00040029020078B
:1029300004D40198504501DBCDF8048000208DF8C7
:102940004F0002980DF14F07B0F1004F25D02B201A
:102950000E9002984FF0020800280CDA40420290D4
:102960002D200E9007E00A210298FDF747FF303135
:10297000029007F8011DB8F10001A8F10108F2DC8E
:1029800002980028EFD1791E0E980870307800F078
:10299000200040F0450007F8020D12A8C01B00F10E
:1029A00007081498007800B1012000EB0A01019893
:1029B00001EBE07105984144401A401E0590E00388
:1029C00006D45B462146179A059800F05DF8054449
:1029D0001498007818B15A46179990476D1CE00377
:1029E00024D55B462146179A059800F04DF805441A
:1029F0001CE00498002807DBDDE90301884203DDC1
:102A00000098405C179901E0179930205A4690478A
:102A1000049805F10105401C04900198401E0190A6
:102A200004D12E205A46179990476D1CBAF1000127
:102A3000AAF1010ADDDC05E017F8010B5A461799E7
:102A400090476D1CB8F10001A8F10108F4DC5B4669
:102A50002146179A0598ABE62D0000002B000000D8
:102A6000200000002DE9F041044600251E461746CF
:102A7000880404D405E039462020B0476D1C641E4C
:102A8000F9D52846BDE8F0812DE9F041044600253E
:102A90001E469046C80301D5302700E02027880451
:102AA00004D505E041463846B0476D1C641EF9D593
:102AB0002846BDE8F0810A68531C0B60107070470F
:102AC00070B505460C46002614B10DB1A54201D1E2
:102AD000002070BDAE6826B9AC6064600020206044
:102AE00007E0706828B12146706801F079F9A8689C
:102AF00044600120EDE72DE9F04705460E461446F7
:102B00001F46DDF820904FF00008C2461DB116B1F7
:102B10000CB1A54202D10020BDE8F087B9F1000F49
:102B200007D0304600F0CEF88046E06840F4007AE6
:102B30000CE03946304600F0A9F88046B8F1000FA5
:102B400001D10020E8E7E06820F4007AA08900F4D1
:102B5000007020B9206A10B1206A79688847C4F8EB
:102B60002080C4F80CA021462846FFF7A9FFD3E730
:102B700010B50246002309E006480068007810708E
:102B800004480068401C034C20605B1C8B42F3DB54
:102B9000084610BD2C000020F8B504460D46164628
:102BA0000020044B3246294600902046FFF7A3FF41
:102BB000F8BD00003800002010B5044800F04EF8C1
:102BC00004460CB14020E060204610BD38000020D3
:102BD00070B505460A4800F041F804466CB1102073
:102BE000E0600749284600F051F82061206920B9CB
:102BF000204600F007F8002070BD2046FCE70000EA
:102C00003800002070B50446002522E02568A08920
:102C100000F4807020B9A06810B1A068FFF7F2FF3F
:102C2000A08900F4807028B9206918B10A4A206987
:102C300051688847A08900F4007028B9206A18B14B
:102C4000054A206A516888470348416820468847FA
:102C50002C46002CDAD170BD3800002070B5044637
:102C600028202168884705461DB128212846FDF700
:102C700094FA284670BD000010B50446024A0021AF
:102C8000204600F07FFA10BD380000202DE9F04109
:102C900004460D460026002714B90020BDE8F08147
:102CA0002046FDF785FA461C3046296888470746C6
:102CB0000FB90020F2E7324621463846FDF754FAB4
:102CC0003846EBE7704710B504464FF4847101EBCA
:102CD00044101021FEF794FA00BF4FF4847101EB09
:102CE0004410FEF76EFA0028F7D14FF4027101EBA1
:102CF0004410FF21FEF784FA10BD00002DE9FC5FAF
:102D000004460D4616461F4627F00043B24625F0FE
:102D100000405246CDE9004020460199FDF756FD9E
:102D200003D225F00041204602E027F00041304662
:102D30008046894600220D4B40464946FDF7BBFCC4
:102D400082468B4632463B4620462946FDF7ADFC7F
:102D500021F0004152465B46CDE90001FDF71EFD22
:102D600002D80120BDE8FC9F0020FBE70000B03C3A
:102D70002DE9F04105460C4616462078FF2808D17B
:102D80006078FF2805D1A078FF2802D1E078FF28DD
:102D900008D0207828B9607818B9A07808B9E07808
:102DA00000B10EB900275CE00127217840F6084207
:102DB00002EB4510FEF724FA617840F6085202EB68
:102DC0004510FEF71DFAA17840F6086202EB4510A7
:102DD000FEF716FAE17840F6087202EB4510FEF7AE
:102DE0000FFA310A41F2080202EB4510FEF708FA29
:102DF000F1B241F2081202EB4510FEF701FA4FF46E
:102E0000847101EB45100421FEF7FAF900BF4FF47D
:102E1000847101EB4510FEF7D4F90028F7D117E0D3
:102E20004FF4427101EB4510FEF7CBF9172800D1A2
:102E300016E0284600F0A8F800F0080040B14FF472
:102E4000027101EB45100821FEF7DAF9002707E0CF
:102E50004FF4427101EB4510FEF7B3F91528DFD1AD
:102E600000BF3846BDE8F0812DE9F04104460D462B
:102E7000002600270CB1206810B90020BDE8F081C1
:102E8000606828B1D4E90110884201D30020F5E739
:102E9000B5F1004F01D30020F0E7A068401C0544C5
:102EA0006068A84203D3A16820680844E6E7206967
:102EB00008B10020E2E7B5F1804F07D3B5F1004F2C
:102EC00002D26FF0004702E00020D7E76F00206ACF
:102ED00060B13946226A206890470646DEB9E1694A
:102EE00020688847002060602060C7E73846A169F5
:102EF0008847064636B9E169206888470020606047
:102F00002060BBE7A068421C30462168FDF72CF921
:102F1000E1692068884767602660A0683044ADE7B3
:102F200070B504460D46E1B20548FFF76CF800BFE6
:102F300080210348FEF79AFF0028F9D0204670BD93
:102F40000038014010B5044604222146900101F0EA
:102F500035FA10BD0146024830F8110070470000F4
:102F60000E07002010B50446042221464FF470607D
:102F700001F024FA10BD10B50446042221464FF496
:102F8000A06001F01BFA10BD10B504464FF40271A9
:102F900001EB4410FEF715F910BD70B5044600258D
:102FA000002600BF42F2086101EB4410FEF709F968
:102FB000064642F2087101EB4410FEF702F900EBFD
:102FC000062086B27EB142F2086101EB4410FEF7A2
:102FD000F8F8054642F2087101EB4410FEF7F1F8EB
:102FE00000EB052085B2B542DCD1284670BD10B596
:102FF00004464FF4427101EB4410FEF7E2F810BDB5
:1030000070B504460025002600BF42F2080101EB1E
:103010004410FEF7D6F8064642F2081101EB4410C0
:10302000FEF7CFF800EB062086B27EB142F208012F
:1030300001EB4410FEF7C5F8054642F2081101EB1A
:103040004410FEF7BEF800EB052085B2B542DCD196
:10305000284670BD2E2070472DE9F0410B3020F03E
:103060000706104D19E02068B04215D3B0420AD9C6
:10307000871B201DD4F80480FDF776F8A019C0E95D
:103080000078286004E060682860201DFDF76CF877
:10309000201D2660BDE8F081251D2C68002CE2D1A2
:1030A0000020F7E7480000201CB51AA00068019036
:1030B00040F25B744820FEF727FEFEF720FCFDF788
:1030C0009BFFFEF7B9FFFEF783FEFEF70BFD00F056
:1030D00063FD00F09FFD002000F016FE9DF8070044
:1030E00000909DF806309DF805209DF804100AA078
:1030F000FEF7F6FF214610A0FEF7F2FF14A0FEF740
:10310000EFFF19A0FEF7ECFF02E001A800F008FFB6
:10311000FBE700007659464F5443502053657276C2
:1031200065722049503A2025642E25642E25642E90
:103130002564200D0A000000544350205365727628
:10314000657220506F72743A202564200D0A0000C9
:10315000573535303020496E697420436F6D706C7F
:10316000657465210D0A00005374617274204D511D
:10317000545420436C69656E742054657374210D3A
:103180000A000000F0B589B007460E461446002537
:1031900024216846FDF701F84FF4807021688847C4
:1031A00000904FF480700190059694E8070006ABFC
:1031B00007C3009800B933E06946384600F0A6FA24
:1031C00000B92DE0684601F0E6F8A06850B1029B16
:1031D000591C0098A2689047054605B920E00020D8
:1031E00000901AE0029A501C21688847054605B9EC
:1031F00016E0DDE90130401C834201D2019801E074
:103200000298401C024628460099FCF7ADFF0020BA
:1032100002996854009861688847284609B0F0BD53
:10322000009810B100986168884715B12846616818
:1032300088470020F2E72DE9F04107460C460025BB
:10324000A846BE6814B90020BDE8F08101212046DF
:10325000FFF70AFE05460DB90020F5E75B20287050
:10326000A068401CA060E068401CE06028E02146A7
:10327000304600F04BFA08B90020E5E7204601F09F
:103280008AF83068D8B1606908B1022000E00120F6
:10329000804608F101012046FFF7E6FD05460DB91D
:1032A0000020D1E72C2005F8010B606910B1202027
:1032B00005F8010B00202870A0684044A060366823
:1032C000002ED4D102212046FFF7CEFD05460DB9D0
:1032D0000020B9E75D2005F8010B00202870E068A8
:1032E000401EE0600120AFE72DE9F04F8BB0824631
:1032F0000F464FF00009DAE90656C84600241C21A3
:1033000004A8FCF74AFFFFF7A5FE834600210291BF
:1033100003911FB900200BB0BDE8F08FCDE9005636
:10332000DDE900210AB1012200E0002241EA0200A9
:1033300020F000412F4A511AC90F61B9CDE900565A
:1033400051000198B1EB400F03D1009808B901205A
:1033500000E0002028B128A104A8FEF7D1FE804695
:103360001BE02A46334626A104A8FEF7C9FE804684
:1033700002AA25A104A8FCF72BFF012806D12A46A2
:103380003346DDE90201FFF7B9FC30B92A4633467E
:103390001EA104A8FEF7B4FE8046B8F1000F02DBC0
:1033A000B8F1190F01DD0020B5E708F10101384639
:1033B000FFF75AFD8146B9F1000F01D10020AAE7BD
:1033C00000240DE004A8005D584503D12E2009F823
:1033D000040004E004A8005D09F8040000BF641CB8
:1033E0004445EFD3002009F80400B8684044B860B1
:1033F000012090E70000F07F6E756C6C000000000B
:1034000025312E3135670000256C670025312E31BE
:10341000376700002DE9F04781460C46002500265D
:10342000D9F8087014B90020BDE8F087606908B1C8
:10343000022000E001200646711C2046FFF714FD23
:1034400005460DB90020EFE77B2005F8010BE06889
:10345000401CE060606910B10A2005F8010BA0680B
:103460003044A06069E06069B8B12046E168FFF7C8
:10347000FBFC05460DB90020D6E74FF0000804E03C
:10348000092005F8010B08F10108E0684045F7D86C
:10349000D4E902010844A06000BF2146386A00F068
:1034A0007BF808B90020BFE7204600F074FF606990
:1034B00008B1022000E00120064631462046FFF711
:1034C000D3FC05460DB90020AEE73A2005F8010B04
:1034D000606910B1092005F8010BA0683044A060B4
:1034E0002146384600F012F908B900209CE7204632
:1034F00000F051FF606908B1012000E00020396848
:1035000009B1012100E000214618711C2046FFF797
:10351000ABFC05460DB9002086E7386810B12C20B9
:1035200005F8010B606910B10A2005F8010B0020B5
:103530002870A0683044A0603F68002F93D1606974
:1035400010B1E068401C00E0022001462046FFF771
:103550008BFC05460DB9002066E7606950B100207C
:1035600003E0092105F8011B401CE168491E814266
:10357000F7D800BF7D2005F8010B00202870E06817
:10358000401EE06001204FE770B504460D46294615
:10359000206900F001F870BD2DE9F04707468A4622
:1035A000002400260025A046A146BAF1000F02D152
:1035B0000020BDE8F0876FB903215046FFF754FCA7
:1035C00006460EB90020F4E74DA13046FCF7F7FDA2
:1035D0000120EEE73C4622E020780C2811D006DCE2
:1035E00008280DD009280FD00A2810D10AE00D288C
:1035F00009D0222802D05C2809D100E000BF00BF1A
:1036000000BF00BF00BF00BF09F1010905E020783D
:10361000202801DA09F1050900BF00BF641C2078E9
:103620000028D9D1E01B00EB090808F1030150463E
:10363000FFF71AFC06460EB90020BAE7B9F1000FF1
:103640000FD12220307042463946701CFCF78CFDA9
:10365000222108F1010031540021401C3154012085
:10366000A7E722203070751C3C463DE020781F28DB
:1036700008DD2078222805D020785C2802D0207828
:1036800028702FE05C2005F8010B20780C2815D05D
:1036900006DC08280FD0092819D00A281AD110E012
:1036A0000D2811D0222803D05C2813D1287018E0EF
:1036B0002220287015E06220287012E06620287011
:1036C0000FE06E2028700CE07220287009E0742052
:1036D000287006E022780BA12846FEF711FD2D1D6B
:1036E00000BF00BF641C6D1C20780028BED12221C1
:1036F00008F1010031540021401C3154012058E7E9
:103700002222000075253034780000002DE9F041B8
:1037100004460E46002504B116B90020BDE8F0812C
:10372000207B102857D008DC01281BD0022827D086
:10373000042809D008285DD130E0202850D0402846
:1037400053D0802856D12EE005213046FFF78CFB60
:1037500005460DB90020E1E727A12846FCF72FFD1B
:103760000120DBE706213046FFF77EFB05460DB959
:103770000020D3E722A12846FCF721FD0120CDE758
:1037800005213046FFF770FB05460DB90020C5E75F
:103790001DA12846FCF713FD0120BFE73146204656
:1037A000FFF7A2FDBAE70027206908B90020B5E7B6
:1037B0002069FCF7FDFC471C39463046FFF754FBF7
:1037C00005460DB90020A9E73A4628462169FCF7CD
:1037D000CBFC0120A2E731462046FFF7D5FE9DE74E
:1037E00031462046FFF727FD98E731462046FFF790
:1037F00011FE93E7002091E76E756C6C00000000ED
:1038000066616C73650000007472756500000000ED
:1038100001460A6810780A68521C0A60704730B581
:1038200001460A68537814784FF4807505FB04301C
:103830000B689B1C0B6030BDF0B505460C46164668
:1038400000272068301A01280FDD2046FFF7E7FF28
:103850006860206869680844B04206D82168A96099
:1038600020686968084420600127002028603846E5
:10387000F0BD00002DE9F04704008A4616D054F848
:10388000047CD4F800903E1F564500D95646204689
:10389000FEF74AFC05468846324621465046FFF769
:1038A000DBFB40B1C0F80090BDE8F087BDE8F04711
:1038B0000846FEF767BC44E9017955B129686A18E2
:1038C000211F8A4202D9611B091F2960C5F80480A3
:1038D000EAE7024AC2F80080E6E70000480000205C
:1038E0002DE9F04104460E4615460027002D15DD52
:1038F0002A463146204600F015F84FF4847101EB5A
:1039000044104021FDF77CFC00BF4FF4847101EBB3
:103910004410FDF756FC0028F7D12F463846BDE885
:10392000F08100002DE9F04104460F4616460025BF
:10393000A8462EB9214618A0FEF7D2FBBDE8F081BB
:1039400042F6080101EB4410FDF73BFC054642F648
:10395000081101EB4410FDF734FC00EB052085B2A3
:10396000280200EB441000F1180832463946404660
:1039700000F024FDA81985B2290A42F6080202EBDC
:103980004410FDF73DFCE9B242F6081202EB441088
:10399000FDF736FC00BFD1E743483A2025642055A7
:1039A0006E657870656374656432206C656E6774EB
:1039B0006820300D0A0000002DE9F04704468846D3
:1039C000164600250027A9462046FFF7C3FAB04255
:1039D00004DA2046FFF7BEFA074600E0374600BF8C
:1039E0002046FFF70DFB81464FF4427101EB441076
:1039F000FDF7E7FB0546172D03D01C2D01D000274E
:103A000001E0B945ECDB00BF3A464146204600F0F4
:103A100049F84FF4847101EB44102021FDF7F0FBCD
:103A200000BF4FF4847101EB4410FDF7CAFB00287E
:103A3000F7D113E04FF4427101EB4410FDF7C1FBE5
:103A40000546172D0AD01C2D08D011A0FEF748FB03
:103A50002046FFF738F90020BDE8F0874FF40271E7
:103A600001EB4410FDF7ADFB00F010001028E1D190
:103A70004FF4027101EB44101021FDF7C1FB4FF42C
:103A8000027101EB44101021FDF7BAFB3846E3E761
:103A900053454E445F4F4B2050726F626C656D21F1
:103AA000210D0A002DE9F04104460F461646002577
:103AB000A8460EB9BDE8F08142F2084101EB44107E
:103AC000FDF77FFB054642F2085101EB4410FDF77C
:103AD00078FB00EB052085B2280200EB441000F1D2
:103AE000100832463946404600F09CFCA81985B2C1
:103AF000290A42F2084202EB4410FDF781FBE9B2C9
:103B000042F2085202EB4410FDF77AFB00BFD1E706
:103B100010B5044604222146900100F083FC10BD3C
:103B200010B5044621464FF4D850FDF769FB10BD8F
:103B300010B50446210A4FF4C850FDF761FBE1B20D
:103B40004FF4D050FDF75CFB10BD10B504460622C3
:103B500021464FF4106000F065FC10BD10B504461E
:103B6000042221464FF4706000F05CFC10BD10B5DB
:103B70000446042221464FF4A06000F053FC10BD1F
:103B800070B504460D464FF4027101EB441029460E
:103B9000FDF736FB70BD000086B017A103C9CDE963
:103BA000040117A00068039016A00068029016A0F8
:103BB0000068019015A00068009015480399C16045
:103BC000029901610199416104994160BDF81410A5
:103BD00001810099816100200D4908770120487713
:103BE0000020C88381F82000012088720021084845
:103BF000C17206B0704700000008DC11111100000E
:103C0000C0A80196FFFFFF00C0A80101080808082E
:103C1000500000201CB52448FFF797FF22480C30C5
:103C2000FFF7A5FF20481030FFF772FF1E4808304D
:103C3000FFF794FF1D491E4800F0D6F84FF4FA60D4
:103C4000FFF776FF0320FFF76BFF01A8FFF78AF964
:103C50009DF8070000909DF806309DF805209DF81E
:103C6000041014A0FEF73CFA01A8FFF784F99DF8B0
:103C7000070000909DF806309DF805209DF804107F
:103C800013A0FEF72DFA01A8FFF75CF99DF80700D5
:103C900000909DF806309DF805209DF8041013A0B3
:103CA000FEF71EFA1CBD0000540000201C0000207E
:103CB00014000020573535303045564220495020F9
:103CC0003A2025642E25642E25642E25640D0A00D5
:103CD000573535303045564220534E203A20256422
:103CE0002E25642E25642E25640D0A0057353530A7
:103CF00030455642204757203A2025642E25642E11
:103D000025642E25640D0A0010B5044642F608719C
:103D100001EB44100221FDF773FA10BD2DE9F041CB
:103D200004460D461646984605F00F0001280FD0B0
:103D300005F00F0002280BD005F00F00032807D074
:103D400005F00F00042803D005F00F00052841D12D
:103D50002046FEF7B8FF45EA0801082202EB4410AE
:103D6000FDF74EFA76B1310A4FF4816202EB44104E
:103D7000FDF746FAF1B24FF4A16202EB4410FDF7F1
:103D80003FFA15E015480088401C144908800A468F
:103D90001288110A4FF4816202EB4410FDF730FAE9
:103DA0000E4A11784FF4A16202EB4410FDF728FA95
:103DB0004FF4847101EB44100121FDF721FA00BF9B
:103DC0004FF4847101EB4410FDF7FBF90028F7D1A3
:103DD000012700E000273846BDE8F08124000020DC
:103DE00001604860704700002DE9F04105460E462D
:103DF0000027B846002489E0295D41F6087202EBED
:103E00004410FDF7FDF9315D41F6086202EB441004
:103E1000FDF7F6F90020404921F814003F4921F848
:103E20001400B7F5804F32DC285D042816D004DC7E
:103E3000012807D0022823D10AE0082814D010282E
:103E40001ED117E04FF48060334921F814001DE0C3
:103E50004FF40060304921F8140017E04FF480500F
:103E60002D4921F8140011E04FF400502A4921F89F
:103E700014000BE04FF48040274921F8140005E0BE
:103E80004FF40060254921F8140000BF00BFB8F5C9
:103E9000804F32DC305D042816D004DC012807D0C6
:103EA000022823D10AE0082814D010281ED117E0D8
:103EB0004FF48060194921F814001DE04FF40060B0
:103EC000164921F8140017E04FF48050134921F8E7
:103ED000140011E04FF40050104921F814000BE0D9
:103EE0004FF480400D4921F8140005E04FF40060C4
:103EF0000A4921F8140000BF00BF074830F8140039
:103F00000744064830F814008044641C082CFFF66F
:103F100073AFBDE8F08100000E0700201E070020EF
:103F20002DE9F04FADF2644D07464FF00108C14650
:103F30004FF0000A00244FF48065A346002018903B
:103F40003046FCF735F9179096A016900020139094
:103F500014901590129040F25B70119041F27070C5
:103F6000109000200F90FFF742F800286FD0132820
:103F700004D0172808D01C2805D102E139460020BA
:103F8000119AFEF7F5FE07E10020FEF7FDFF00F0B5
:103F9000010018B101210020FFF7F2FD4FF480610C
:103FA00019A8FCF7FAF80020FEF7F7FF04460CB951
:103FB00000200F90002C01DD01200F900F9810B110
:103FC00001287BD1D6E0B8F1010F78D17EA0FEF7B1
:103FD00087F819A881A18AA30122CDE901050091E2
:103FE0003C218EA0FDF726F900F0FF0B4FF00008F2
:103FF0005A4619A90020FFF7DFFC11E00220FCF768
:10400000D1FF8DA0FEF76CF80020FEF7F0FF82468E
:1040100021468EA0FEF764F851468FA0FEF760F8A7
:104020000020FEF7BAFF041EE8D0294619A8FCF7C5
:10403000B4F821468EA0FEF753F8224619A90020B5
:10404000FFF74EFC19A98FA0FEF74AF803E09CE0A9
:104050008EA0FEF745F819A8FDF745FA0228F7D11A
:10406000B9F1010F7ED119A986A0FEF739F82946CA
:1040700019A8FCF792F82A4619A9189B1698FDF77B
:1040800006FC00F0FF0B5A4619A90020FFF794FC2C
:1040900005E00220FCF786FF82A0FEF721F8002051
:1040A000FEF77BFF041EF4D0294619A8FCF775F82B
:1040B000224619A90020FFF713FC04E05EE058E057
:1040C0007EA0FEF70DF819A8FDF70DFA0928F7D123
:1040D00080A0139088A0FDF729F906463046FCF72A
:1040E00067F817903CE08B4A294619A8FDF7C8F9F4
:1040F000032815D119A80AA909AACDE90305CDE914
:10410000012105A80BAB0CAA0DA900900EA8FDF784
:10411000B9F8089080A0DDE90921FDF7E1FF00BFB3
:1041200083A0FDF7DDFF314686A0FDF7D9FF179884
:10413000CDE9056013A807C802AB07C300200090B3
:10414000034602462946019019A8FDF7C8FA84B231
:10415000224619A90020FFF72FFC0320FCF722FFBD
:10416000C1E7FFE719A97DA0FDF7BAFF0520FCF71D
:1041700019FF04E07FA0FDF7B3FF00E000BF00BF20
:104180000AE00020FEF79FFD06E020230121002029
:10419000109AFFF7C3FD00BF00BF00200DF2644D71
:1041A000BDE8F08F2F6465766963652F3431413740
:1041B000453637364138444C3938535A4E533241DC
:1041C000503741422F72000073656E64206D717428
:1041D000745F636F6E6E6563740D0A00647169537A
:1041E0006F7245696D344E546D4E715963666971D5
:1041F000656F7279636B6A47434A7951000000002A
:104200003477583778614642327375387473446A2C
:10421000433775374763694C7A6E00003431413754
:10422000453637364138444C3938535A4E5332416B
:10423000503741420000000069276D2077616974A2
:1042400074696E6720646F6E650000006C656E2097
:1042500069732025640D0A00736F636B65742073A6
:10426000746174752069733A2025640D0A0000009A
:1042700072656376206C656E206973203A25642030
:104280000000000025730D0A0000000077616974CA
:1042900074696E6720666F7220434F4E4E41434BE8
:1042A0002121210069276D207761697474696E6727
:1042B00020646F6E65202D205375620077616974EC
:1042C00074696E6720666F722053554241434B21DB
:1042D000212100002F6465766963652F34314137F1
:1042E000453637364138444C3938535A4E533241AB
:1042F000503741422F730000323134366335343346
:104300003536646531316562383162623532353453
:1043100000000000814300086D65737361676520CC
:104320006172726976656420252E2A730A00000086
:104330007075626C697368696E6720726561646923
:104340006E670A007061796C6F616420626520732A
:10435000656E74203A2025730D0A00007468697335
:104360002069732074686520726563206275663AFF
:1043700025730000536E5F52585F5253525F3100F5
:1043800070B504460D46AAB221460020FFF7A8FAF0
:104390000646304670BD70B5044600250CB1206855
:1043A00000B970BDA168206845182846FBF700FFDA
:1043B000A1680844A06000BFF3E700002DE9F041C8
:1043C00004460F461546002615B910A0FDF788FED5
:1043D000FCF7EDFEC4F30740FCF70CFFC4F3072025
:1043E000FCF708FF04F0F800FCF704FF002605E0E6
:1043F0000020FCF7FFFEB855701C86B2AE42F7DB1A
:10440000FCF7DAFE2846BDE8F0810000556E6578BD
:1044100070656374656432206C656E677468203003
:104420000D0A00002DE9F04104460F46154600260E
:1044300015B910A0FDF754FEFCF7B9FEC4F3074010
:10444000FCF7D8FEC4F30720FCF7D4FE04F0F80113
:10445000091DC8B2FCF7CEFE002604E0B85DFCF7EB
:10446000C9FE701C86B2AE42F8DBFCF7A5FE2846FA
:10447000BDE8F081556E65787065637465643220BF
:104480006C656E67746820300D0A000070B50446D4
:104490000E463046FBF78CFE05462946204600F0C6
:1044A0000FF82A4631462068FBF75EFE2068284454
:1044B000206070BD026811700268521C0260704773
:1044C00010B50A46CB1701EB13631B0A046823706F
:1044D0000268521C02600A46CB1701EB13631B12E1
:1044E000A1EB0323046823700268521C026010BD14
:1044F0001FB50446029800280DDD20460299FFF7FB
:10450000DFFFDDE902212068FBF72EFE206802991B
:10451000084420600AE0019820B120460199FFF785
:10452000B5FF03E000212046FFF7CAFF1FBD0000D2
:104530004D51544300000000040000000000000042
:1045400000000000000000003C0001004D515457E5
:10455000000000000000000000000000000000005B
:10456000000000000000000000000000000000004B
:10457000000000000000000000000000000000003B
:104580000000000000000000DDDDDDDDDCBBBBDD88
:10459000DDDDDDDDDDDDDDDD9888888888888888E3
:1045A0007777777777888888855555566666666603
:1045B00066666666666888888333333222222222E2
:1045C000222222222228888DE845000800000020AF
:1045D00050000000D4210008384600085000002098
:1045E000E0160000E42100080000000001020304BE
:1045F0000102030406070809020406080202020277
:104600000202020202020202020202020000000092
:10461000000000000000000000000000000000009A
:1046200085210008292100087538000800000000D5
:08463000000000000000000082
:0400000508000131BD
:00000001FF
