:020000040800F2
:10000000081C002015120008D9120008DB12000895
:10001000DF120008E3120008E712000800000000E9
:10002000000000000000000000000000EB120008CB
:10003000ED12000800000000EF120008F1120008A5
:100040002F1200082F1200082F1200082F1200088C
:100050002F1200082F1200082F1200082F1200087C
:100060002F1200082F1200082F1200082F1200086C
:100070002F1200082F1200082F1200082F1200085C
:100080002F1200082F1200082F1200082F1200084C
:100090002F1200082F1200082F1200082F1200083C
:1000A0002F1200082F1200082F1200082F1200082C
:1000B0002F1200082F1200082F1200082F1200081C
:1000C0002F1200082F1200082F1200082F1200080C
:1000D0002F120008BB2E00082F1200082F12000854
:1000E0002F1200082F1200082F1200082F120008EC
:1000F0002F1200082F1200082F1200082F120008DC
:100100002F1200082F1200082F1200082F120008CB
:100110002F1200082F1200082F1200082F120008BB
:100120002F1200082F1200082F1200082F120008AB
:10013000DFF80CD003F0ACF9004800473912000892
:10014000081C002031490143314A1160704770B5E5
:10015000002100230F22C47804B32D4C246804F43A
:10016000E064C4F5E064210AC1F10403CA404478A4
:1001700004FA03F18478144021430901254C0678E0
:10018000A155047804F01F050124AC4005786D11D9
:10019000AD0005F1E025C5F8004109E0047804F060
:1001A0001F050124AC401C4D0678761145F8264009
:1001B00070BD1A4A0A400243154B1B1F1A60704754
:1001C00039B1134A121D12680243114B1B1D1A60EC
:1001D00006E00F4A121D126882430D4B1B1D1A6068
:1001E0007047042808D14FF0E021096941F004016B
:1001F0004FF0E022116107E04FF0E021096921F0A2
:1002000004014FF0E0221161704700000000FA0580
:100210000CED00E000E400E080E100E080FFFF1F63
:1002200010B50446CC48844208D10121042000F0D6
:100230002DFB0021042000F029FB46E0C748844242
:1002400008D10121082000F021FB0021082000F046
:100250001DFB3AE0C248844208D10121102000F081
:1002600015FB0021102000F011FB2EE0BD48844258
:1002700008D10121202000F009FB0021202000F0FE
:1002800005FB22E0B848844208D10121402000F05B
:10029000FDFA0021402000F0F9FA16E0B34884424C
:1002A00008D10121802000F0F1FA0021802000F027
:1002B000EDFA0AE0AE48844207D10121801500F032
:1002C000E5FA0021A01500F0E1FA10BD10B50121FA
:1002D000084600F0DBFA0021012000F0D7FA10BD3B
:1002E0002DE9F041024600250026002000230024CD
:1002F000002791F803C00CF00F0591F803C00CF033
:10030000100CBCF1000F03D091F802C04CEA0505B7
:1003100091F800C0BCF1000F31D0146800202BE030
:100320004FF0010C0CFA00F3B1F800C00CEA030620
:100330009E4220D183004FF00F0C0CFA03F7BC4310
:1003400005FA03FC4CEA040491F803C0BCF1280F41
:1003500006D14FF0010C0CFA00FCC2F814C00AE000
:1003600091F803C0BCF1480F05D14FF0010C0CFA15
:1003700000FCC2F810C0401C0828D1D31460B1F8AA
:1003800000C0BCF1FF0F34DD546800202EE000F106
:10039000080C4FF0010808FA0CF3B1F800C00CEAA1
:1003A00003069E4221D183004FF00F0C0CFA03F795
:1003B000BC4305FA03FC4CEA040491F803C0BCF109
:1003C000280F05D100F1080C08FA0CF8C2F81480C7
:1003D00091F803C0BCF1480F07D100F1080C4FF0B1
:1003E000010808FA0CF8C2F81080401C0828CED387
:1003F0005460BDE8F0814FF6FF71018002218170E9
:100400000421C17070470246002093680B400BB175
:10041000012000E0002070470146886880B27047E4
:1004200002460020D3680B400BB1012000E0002001
:1004300070470146C86880B27047016170474161EA
:1004400070470AB1016100E041617047C1607047C7
:100450004FF480320A4382618161826182698269DC
:10046000704702460020434B18684FF680731840CF
:1004700040EA021008433F4B186070473E49C8618C
:100480007047F0B50A46002300240021002500F043
:100490000046B6F1004F02D1364EF16901E0354E0B
:1004A0007168C0F3034583B200F44016B6F5401FEF
:1004B00008D121F070612F4E766826F070662D4FBE
:1004C0007E6012E000F48016B6F5801F06D1032688
:1004D00006FA05F4A14341F0706106E0460D3601CD
:1004E00003FA06F6B14341F0706122B1460D3601C0
:1004F00003FA06F6314300F00046B6F1004F02D190
:100500001C4EF16101E01B4E7160F0BD30B5002260
:100510008B071C0F0F2303FA04F2164B08338C10C1
:1005200053F824309343134C08348D1044F825308D
:1005300023468C1053F824308C07240F00FA04F45F
:1005400023430C4C08348D1044F8253030BD0A4943
:10055000DC3108607047000000080140000C0140D9
:10056000001001400014014000180140001C01402F
:10057000002001400000014000002042DF480068E8
:1005800040F00100DD49086008464068DC49084049
:10059000DA49486008460068DA490840D7490860E7
:1005A0000846006820F4802008600846406820F46F
:1005B000FE0048604FF41F0088607047CF4909680B
:1005C00021F48031CD4A11601146096821F480215F
:1005D0001160B0F5803F03D0B0F5802F0ED106E05A
:1005E000C649096841F48031C44A116007E0C34933
:1005F000096841F4A021C14A116000E000BF00BFBA
:10060000704710B501460022002300204A11012A3C
:1006100002D1BA4C236806E0022A02D1B74C236A01
:1006200001E0B64C636A01F01F02012494401C40B3
:100630000CB1012000E0002010BD38B50020009072
:100640000024002500BF3120FFF7DBFF054600989E
:10065000401C00900098B0F5A06F01D0002DF2D0A2
:100660003120FFF7CEFF08B1012400E0002420462E
:1006700038BD01460020A14A106820F0F80040EA89
:10068000C10010607047A049086070470246002012
:100690009A4B586820F47C1042EA01031843974BA8
:1006A0005860704798490866704701460020934A91
:1006B000506820F003000843506070478F4840683E
:1006C00000F00C007047014600208C4A506820F072
:1006D000F00008435060704701460020874A506888
:1006E00020F4E06008435060704701460020834AD0
:1006F000506820F4605040EAC1005060704729B152
:100700007E4A527A02437D4B5A7204E07B4A527A07
:1007100082437A4B5A7270477B49D83108607047E0
:1007200001460020754A506820F44040084350605C
:1007300070470021714A20321170704A82F82010EF
:10074000012802D004280AD104E001216B4A20329A
:10075000117005E00521694A2032117000E000BFE8
:1007600000BF70476949086070476449096A0143DE
:10077000624A11627047654944390860704730B574
:1007800000210022002400235C4D6D6805F00C015F
:1007900021B1042905D0082923D105E05C4D05606D
:1007A00022E05B4D05601FE0544D6D6805F470124A
:1007B000524D6D6805F48034022505EB92421CB958
:1007C000544D554305600BE04C4D6D6805F4003504
:1007D0001DB1504D5543056002E04D4D5543056038
:1007E00002E04B4D056000BF00BF444D6D6805F051
:1007F000F0010909484D6B5C0568DD4045603F4DDF
:100800006D6805F4E061090A434D6B5C4568DD40A5
:1008100085603A4D6D6805F46051C90A3E4D6B5CC8
:100820004568DD40C560354D6D6805F44041890B74
:100830003A4D6B5CC568B5FBF3F5056130BD29B178
:100840002E4A526902432D4B5A6104E02B4A5269E9
:1008500082432A4B5A61704729B1284A9269024360
:10086000264B9A6104E0254A92698243234B9A61A0
:10087000704729B1214AD2690243204BDA6104E072
:100880001E4AD26982431D4BDA61704729B11B4A67
:10089000D2680243194BDA6004E0184AD2688243F6
:1008A000164BDA60704729B1144A12690243134BA0
:1008B0001A6104E0114A12698243104B1A617047B1
:1008C00012494039086070470F49C86470470B49A6
:1008D000C87170470948406A40F080700749486213
:1008E000704701460020054A92680A400AB101207B
:1008F00000E00020704701498872704700100240F4
:100900000000FFF8FFFFF6FE000042428004424272
:1009100000127A0000093D000000002010000020B5
:1009200010B50446BE48844208D101218014FFF767
:10093000ADFF0021A014FFF7A9FF16E0B9488442DB
:1009400008D101210014FFF7AEFF00212014FFF7AA
:10095000AAFF0AE0B448844207D10121C013FFF77F
:10096000A2FF0021E013FFF79EFF10BD10B500228B
:10097000028802F441520B884C8823438C8823431D
:10098000CC8823430C8923434C8923438C892343FC
:10099000CC8923431A430280838B4FF2FF74234098
:1009A00083830B8A038210BD2DE9F04F85B0054685
:1009B0000C464FF0000902274FF000084FF0010BE2
:1009C0000026B246A88B4FF240010840A8830220BF
:1009D0002884B5F81C90A068022801D100BF38E037
:1009E000A08810B94FF0010B01E04FF0020B8D48C9
:1009F000854200D100E000BF6846FFF7C0FEDDF889
:100A000000A0E088B0F5007F0AD14FEA1A2000EB81
:100A100080004000A168B0FBF1F0401D86B20BE001
:100A20004FEA4B10BAFBF0F000EB80004000A168E9
:100A3000B0FBF1F0401D86B20A20B6FBF0F606F0DE
:100A40000108A6EB0800C0F34F074FF6FF7000EA5D
:100A50000828022F01DBFF2F02DD02274FF00008DC
:100A6000E08840EA080038432884A088A189084328
:100A7000618808432188084340F4006040EA09097E
:100A8000A5F81C9005B0BDE8F08F002101804180E1
:100A90008180C180018141818181C18107210182E1
:100AA00070470021018041808180C18002218160E6
:100AB00000218181704721B1028842F0400202800A
:100AC00004E002884FF6BF731A400280704721B1DC
:100AD000828B42F48062828304E0828B4FF6FF3384
:100AE0001A408283704730B5002400230C11012581
:100AF000A540ABB21AB185881D43858002E0858888
:100B00009D43858030BD1AB183880B43838002E00A
:100B100083888B4383807047818170470146888931
:100B200070474FF6FF62914204D0028842F480720F
:100B3000028004E002884FF6FF631A40028070478B
:100B400021B1828842F00402828004E082884FF65C
:100B5000FB731A408280704702884FF2FF731A407D
:100B6000028002880A4302807047018841F4805164
:100B70000180704721B1028842F40052028004E0F3
:100B800002884DF6FF731A4002807047024600202B
:100B9000012901D0108B00E0908A70470146088A35
:100BA0007047B1F5804F04D1028842F48042028040
:100BB00004E002884BF6FF731A4002807047024639
:100BC000002013890B400BB1012000E0002070478A
:100BD000CA4302817047F0B502460020002400237A
:100BE000002501F00F070126BE40B4B20B1101260B
:100BF0009E40B3B2968806EA03051689264016B1D0
:100C00000DB1012000E00020F0BD10B5002201F080
:100C10000F040123A3409AB2D343038110BD000007
:100C20000030014000380040003C004010B5044650
:100C3000FB48844209D101218803FFF727FE0021E8
:100C40004FF48040FFF722FE32E0F648844209D19B
:100C500001214804FFF727FE00214FF40030FFF781
:100C600022FE25E0F048844209D101218804FFF7E3
:100C70001AFE00214FF48020FFF715FE18E0EB4824
:100C8000844209D10121C804FFF70DFE00214FF471
:100C90000020FFF708FE0BE0E548844208D101215F
:100CA0000805FFF700FE00214FF48010FFF7FBFD61
:100CB00010BD2DE9F04786B005460E460024A24639
:100CC00000BFA1460027B08900B100BF2F462C8A83
:100CD0004CF6FF700440F08804432C82AC894EF639
:100CE000F3100440B08831890843718908430443F4
:100CF000AC81AC8A4FF6FF400440B0890443AC821B
:100D000001A8FFF73CFDC648874202D1DDF810A0DC
:100D100001E0DDF80CA0A88900F4004040B10AEB26
:100D2000CA0000EB0A1031684900B0FBF1F807E097
:100D30000AEBCA0000EB0A1031688900B0FBF1F839
:100D40006420B8FBF0F004012009642101FB108944
:100D5000A88900F4004040B1322000EBC900B0FB8C
:100D6000F1F000F00700044308E0322000EB091026
:100D70006421B0FBF1F000F00F0004432C8106B0B9
:100D8000BDE8F0874FF41651016000218180C180D9
:100D900001810C21418100218181704710B50246FB
:100DA0000020108A4FF2FF0318400B884C88234321
:100DB0008C882343CC8823431843108210BD002124
:100DC000018041808180C180704721B1828942F4D5
:100DD0000052828104E082894DF6FF731A408281BD
:100DE0007047F0B50346002400260025002040F699
:100DF0006A17B94200D100BF1846C1F3421401F08E
:100E00001F06012707FA06F5012C01D10C3004E07A
:100E1000022C01D1103000E014301AB107682F43C2
:100E2000076002E00768AF430760F0BD1AB1838A2C
:100E30000B43838202E0838A8B4383827047028A5A
:100E40004FF6F0731A400282028A0A430282704708
:100E500082894FF2FF731A40828182890A4382811C
:100E6000704721B1828942F00202828104E08289C6
:100E70004FF6FD731A4082817047028A4FF6DF7386
:100E80001A400282028A0A430282704721B1028A12
:100E900042F48042028204E0028A4BF6FF731A4059
:100EA00002827047C1F30802828070470146888839
:100EB000C0F308007047818941F0010181817047CA
:100EC000028BD2B20283028B42EA01220283704774
:100ED000028B02F47F420283028B0A430283704733
:100EE00021B1828A42F02002828204E0828A4FF697
:100EF000DF731A408282704721B1828A42F0100269
:100F0000828204E0828A4FF6EF731A408282704731
:100F100021B1828A42F00802828204E0828A4FF67E
:100F2000F7731A408282704721B1828942F40042ED
:100F3000828103E08289C2F30E028281704721B16F
:100F4000828A42F40062828204E0828A4FF2FF7356
:100F50001A4082827047828A4FF6FB731A4082825F
:100F6000828A0A438282704721B1828A42F0020259
:100F7000828204E0828A4FF6FD731A4082827047B3
:100F800002460020B1F5007F00D100BF13880B405E
:100F90000BB1012000E00020704701F40072B2F5AF
:100FA000007F00D100BFCA430280704770B502467F
:100FB000002400230025002040F66A16B14200D12B
:100FC00000BFC1F3421501F01F03012606FA03F327
:100FD000012D02D19689334006E0022D02D1168AF6
:100FE000334001E0968A33400C12012606FA04F4DD
:100FF0001688344013B10CB1012000E0002070BD10
:1010000010B50022002340F66A14A14200D100BFAF
:101010000A1201249440A3B2DC43048010BD0000F6
:10102000003801400044004000480040004C0040AF
:10103000005000400CB50020019000906C48006802
:1010400040F480306A49086000BF6948006800F4D5
:10105000003000900198401C0190009818B9019848
:10106000B0F5A06FF1D16248006800F4003010B113
:101070000120009001E0002000900098012843D159
:101080005C48006840F010005A4908600846006853
:1010900020F0030008600846006840F00200086085
:1010A00053484068524948600846406848600846CE
:1010B000406840F4806048600846406820F47C1036
:1010C00048600846406840F4E810486008460068F8
:1010D00040F08070086000BF4548006800F0007074
:1010E0000028F9D04248406820F003004049486099
:1010F0000846406840F00200486000BF3C48406835
:1011000000F00C000828F9D10CBD10B5FFF792FFD4
:1011100010BD10B53648006840F001003449086041
:10112000084640683449084031494860084600682C
:10113000324908402E4908600846006820F48020A3
:1011400008600846406820F4FE0048604FF41F0025
:101150008860FFF7DAFF4FF000602949086010BD92
:1011600010B5002100200022214B5B6803F00C0128
:1011700021B1042906D0082928D107E0214B224CAF
:10118000236027E01F4B204C236023E0184B5B6853
:1011900003F47010164B5B6803F48032022303EBF8
:1011A000904022B9194B4343174C23600DE0104B7C
:1011B0005B6803F4003323B1144B4343124C2360A8
:1011C00003E0104B4343104C236003E00D4B0E4CE7
:1011D000236000BF00BF064B5B68C3F303130C4CD6
:1011E000E15C094B1B68CB40074C236010BD00003D
:1011F00000100240002002400000FFF8FFFFF6FE52
:1012000008ED00E000127A001400002000093D0003
:10121000180000200648804706480047FEE7FEE722
:10122000FEE7FEE7FEE7FEE7FEE7FEE7FEE7FEE796
:101230001311000831010008482000F025FD01F0DD
:1012400079FE00F057F800F0A1FC01F0C7FD00F0B6
:1012500094F800F0EEF800F0A9F808A002F0C8F940
:101260000DA002F0C5F911A002F0C2F904E001F0EE
:1012700006FD08B101F0B0FCF9E700005735353044
:101280003045564220496E697420436F6D706C651D
:101290007465210D0A000000537461727420444E7D
:1012A000532054657374210D0A000000496E707557
:1012B000742074686520646F6D61696E206E616D65
:1012C000652865673E3E7777772E62616964752E83
:1012D000636F6D293A0D0A00704700BFFEE700BF3B
:1012E000FEE700BFFEE700BFFEE7704770477047AC
:1012F0007047000008B501211D20FFF7ADFA0F204F
:10130000ADF8000003208DF8020010208DF80300D6
:1013100069465B48FEF7E4FF01215948FFF78FF863
:1013200002215748FFF78BF804215548FFF785F84D
:1013300008215348FFF781F84FF40070ADF8000022
:1013400003208DF8020010208DF8030069464D48F7
:10135000FEF7C6FF4FF400714A48FFF76EF84020D1
:10136000ADF8000003208DF8020048208DF803003E
:1013700069464548FEF7B4FF08BD10B54FF400714B
:101380004048FFF75CF8022000F0C1FC4FF4007108
:101390003C48FFF752F84FF4C86000F091FC10BDD4
:1013A00070B5002044682546A84770BD08B5374889
:1013B00001F068F835482C3001F05BF833483030E4
:1013C00001F047F83148283001F065F830493148DC
:1013D00000F0A8FF4FF4FA6001F08FF8032001F04D
:1013E00099F82D4801F07AF82B48C07800902A48E7
:1013F00083784278017829A002F0FAF82E4801F0AB
:101400005BF82D48C07800902B48837842780178AB
:101410002AA002F0EDF8304801F046F82E48C078D6
:1014200000902D488378427801782CA002F0E0F8F3
:1014300008BD1648001F18490968C1621E4909689D
:1014400001632549096841632B490A68426089881C
:1014500001812A490968816300200C49091F81F82C
:101460003C00012081F83D000020C88781F8400041
:101470000120887200210548001FC17270470000DA
:1014800000080140000C0140001001407C000020D9
:1014900030000020280000203E0000205735353065
:1014A00030455642204950203A2025642E25642E8E
:1014B00025642E25640D0A00420000205735353082
:1014C0003045564220534E203A2025642E25642E66
:1014D00025642E25640D0A0046000020573535305E
:1014E00030455642204757203A2025642E25642E49
:1014F00025642E25640D0A00380000204A000020D3
:1015000010B504464FF4847101EB4410102100F033
:101510007CFE00BF4FF4847101EB441000F08EFE9E
:101520000028F7D14FF4027101EB4410FF2100F0C5
:101530006CFE10BD2DE9F04104460D461646984656
:1015400005F00F0001280FD005F00F0002280BD086
:1015500005F00F00032807D005F00F00042803D082
:1015600005F00F00052841D12046FFF7C9FF45EAE5
:101570000801082202EB441000F047FE76B1310A60
:101580004FF4816202EB441000F03FFEF1B24FF4E1
:10159000A16202EB441000F038FE15E0FE4800881E
:1015A000401CFD4908800A461288110A4FF48162E6
:1015B00002EB441000F029FEF74A11784FF4A162C3
:1015C00002EB441000F021FE4FF4847101EB441053
:1015D000012100F01AFE00BF4FF4847101EB4410AA
:1015E00000F02CFE0028F7D1012700E00027384644
:1015F000BDE8F08170B504464FF4427101EB441030
:1016000000F01CFE132811D14FF4847101EB44103B
:10161000022100F0FAFD00BF4FF4847101EB441089
:1016200000F00CFE0028F7D1012500E00025284637
:1016300070BD2DE9F04105460C4616462078FF287E
:1016400008D16078FF2805D1A078FF2802D1E07882
:10165000FF2808D0207828B9607818B9A07808B990
:10166000E07800B10EB900275CE00127217840F650
:10167000084202EB451000F0C8FD617840F60852C0
:1016800002EB451000F0C1FDA17840F6086202EBC4
:10169000451000F0BAFDE17840F6087202EB451003
:1016A00000F0B3FD310A41F2080202EB451000F0F0
:1016B000ACFDF1B241F2081202EB451000F0A5FDBD
:1016C0004FF4847101EB4510042100F09EFD00BF32
:1016D0004FF4847101EB451000F0B0FD0028F7D104
:1016E00017E04FF4427101EB451000F0A7FD1728F9
:1016F00000D116E0284600F03FFF00F0080040B19E
:101700004FF4027101EB4510082100F07EFD002727
:1017100007E04FF4427101EB451000F08FFD1528F2
:10172000DFD100BF3846BDE8F08110B504464FF464
:10173000847101EB4410082100F067FD00BF4FF4F5
:10174000847101EB441000F079FD0028F7D110BD41
:101750002DE9F04704468846164600250027A9468D
:10176000204600F03DFDB04204DA204600F038FD8E
:10177000074600E0374600BF204600F00FFF8146D5
:101780004FF4427101EB441000F058FD0546172D4F
:1017900003D01C2D01D0002701E0B945ECDB00BFD0
:1017A0003A464146204600F061FF4FF4847101EB58
:1017B0004410202100F029FD00BF4FF4847101EB9B
:1017C000441000F03BFD0028F7D113E04FF44271C4
:1017D00001EB441000F032FD0546172D0AD01C2DF8
:1017E00008D06EA001F004FF2046FFF789FE00201C
:1017F000BDE8F0874FF4027101EB441000F01EFDCC
:1018000000F010001028E1D14FF4027101EB4410F8
:10181000102100F0FAFC4FF4027101EB441010218A
:1018200000F0F3FC3846E3E72DE9F04104460E46AC
:1018300015460027002D15DD2A463146204600F0CA
:101840004FFF4FF4847101EB4410402100F0DDFCA8
:1018500000BF4FF4847101EB441000F0EFFC00284E
:10186000F7D12F463846BDE8F0812DE9F047044610
:10187000894616461D46089F4FF00008204600F096
:10188000AFFCB04204DA204600F0AAFC804600E03B
:10189000B046287828B9687818B9A87808B9E878DF
:1018A00000B117B94FF0000863E0297840F608420C
:1018B00002EB441000F0A9FC697840F6085202EBF4
:1018C000441000F0A2FCA97840F6086202EB441034
:1018D00000F09BFCE97840F6087202EB441000F03F
:1018E00094FC390A41F2080202EB441000F08DFC2E
:1018F000F9B241F2081202EB441000F086FC4246B5
:101900004946204600F0B2FE4FF4847101EB4410CA
:10191000202100F07AFC00BF4FF4847101EB4410E9
:1019200000F08CFC0028F7D112E04FF4027101EBBB
:10193000441000F083FC00F0080048B14FF402713D
:1019400001EB4410182100F060FC0020BDE8F08796
:101950004FF4027101EB441000F070FC00F0100035
:101960001028E2D14FF4027101EB4410102100F075
:101970004CFC4046EAE72DE9FC5F05468A46914665
:101980001E46DDF8308000270024A346B9F1000F81
:1019900071DD42F608010BE04E00002053454E4435
:1019A0005F4F4B2050726F626C656D21210D0A00F4
:1019B00001EB451000F042FC044642F6081101EB31
:1019C000451000F03BFC00EB042084B2200200EB49
:1019D000451000F1180B082101EB451000F02EFC1A
:1019E00000F00700022804D0032845D0042878D14D
:1019F00078E008226946584600F061FC04F10800CE
:101A000084B29DF8000030709DF8010070709DF860
:101A10000200B0709DF80300F0709DF80400A8F873
:101A200000009DF8050098F8001000EB0120A8F8D0
:101A300000009DF806709DF8070000EB072087B2B4
:101A4000200200EB451000F1180B3A46514658466B
:101A500000F035FCE01984B2210A42F6080202EBDC
:101A6000451000F0D2FBE1B242F6081202EB45103D
:101A700000F0CBFB6AE07AE006226946584600F0A7
:101A80001EFCA01D84B29DF8000030709DF801007E
:101A900070709DF80200B0709DF80300F0709DF822
:101AA00004709DF8050000EB072087B2200200EBD0
:101AB000451000F1180B3A465146584600F0FFFB1E
:101AC000E01984B2210A42F6080202EB451000F048
:101AD0009CFBE1B242F6081202EB451000F095FBC8
:101AE00034E032E002226946584600F0E8FBA01CD0
:101AF00084B29DF800709DF8010000EB0720801E65
:101B000087B240F2EA50874204DD1AA001F070FD6E
:101B100000BFFEE7200200EB451000F1180B3A462B
:101B20005146584600F0CBFBE01984B2210A42F638
:101B3000080202EB451000F068FBE1B242F6081221
:101B400002EB451000F061FB00E000BF00BF4FF466
:101B5000847101EB4510402100F057FB00BF4FF4AA
:101B6000847101EB451000F069FB0028F7D138467D
:101B7000BDE8FC9F646174615F6C656E206F766583
:101B80007220313531340D0A0000000000B587B0F5
:101B900001218803FEF76DFE01210920FEF75CFE9E
:101BA0004FF48050ADF8040003208DF8060010209B
:101BB0008DF8070001A93248FEF792FB4FF48051DF
:101BC0002F48FEF73AFC4FF46040ADF804000320C4
:101BD0008DF8060018208DF8070001A92848FEF7A7
:101BE0007FFB0020ADF808004FF48270ADF80A00CA
:101BF0000020ADF80C00ADF80E00ADF810004FF469
:101C00000070ADF812000820ADF814000020ADF807
:101C100016000720ADF8180002A91A48FEF7A6FE24
:101C200001211848FEF747FF07B000BD10B5044674
:101C30002CB94FF480511248FEF701FC05E0012C4D
:101C400003D121030E48FEF7F8FB10BD10B5044682
:101C500000BF02210B48FEF7B2FF0028F9D0214651
:101C60000848FEF759FF00BF01210648FEF7A7FF0D
:101C70000028F9D00348FEF751FFC0B210BD0000A4
:101C8000000C0140003800404FF0E021096921F0CC
:101C900004014FF0E0221161C21700EB5272C2F34F
:101CA000C702F74B1A701946097801EB4102C2EBE3
:101CB000C1114FF6FF7202EAC101F24A118070476A
:101CC0000146F04A12884A434FF0E0235A6100224D
:101CD0009A6101221A6100BF4FF0E022106900F002
:101CE00001021AB100F48032002AF5D000224FF030
:101CF000E0231A619A61704710B5044604E04FF47E
:101D00007A70FFF7DDFF641E002CF8D110BD01468C
:101D1000DB4A12784A434FF0E0235A6100229A616D
:101D200001221A6100BF4FF0E022106900F00102A9
:101D30001AB100F48032002AF5D000224FF0E023DF
:101D40001A619A6170470146302905DB392903DCA5
:101D5000A1F13000C0B27047612905DB662903DCC0
:101D6000A1F15700C0B2F6E7412905DB462903DCA3
:101D7000A1F13700C0B2EEE70846ECE730B5024605
:101D80000B46002405E012F8010BFFF7DCFF04FB13
:101D9000030410780028F6D1A0B230BD30B5024659
:101DA0000B46002405E012F8010BFFF7CCFF04FB03
:101DB000030410780028F6D1204630BD2DE9F0410B
:101DC00004460D461646701EC7B2202231462846EC
:101DD00001F0E4F800BF0A2094FBF0F100FB114091
:101DE0003030C2B23846791ECFB22A540A2094FB52
:101DF000F0F080B2041EEEDCBDE8F0812DE9F04188
:101E000004460F46904626460CB1207810B90020B3
:101E1000BDE8F0810BE03078FFF795FF0546002D17
:101E200003DBBD4201DA761C01E00020F0E73078E8
:101E30000028F0D1B9B22046FFF7A0FFC8F8000093
:101E40000120E5E710B50B46002104E0445C9C420C
:101E500000D14254491C445C002CF7D110BD01460E
:101E600000200A06100C40EA1120704701460020AD
:101E70000806C1F3072240EA0240C1F3074240EAE4
:101E8000022040EA116070472DE9F04781460E4676
:101E900017461D463146484601F092F80446304642
:101EA00001F0B6F804443946204601F089F882462C
:101EB000AAEB04001FFA80F842462146284601F0AA
:101EC00091F8002005F80800BDE8F0872DE9F04101
:101ED00088B006460F463146684601F0ADF86C46BC
:101EE00000251BE068A1204601F0B0F804462078E8
:101EF000302809D16078782806D11021A01CFFF77E
:101F00003DFF00F0FF0805E00A212046FFF736FFFD
:101F100000F0FF0807F8058000246D1C042DE1DBAC
:101F200008B0BDE8F0811CB504462021574801F0F7
:101F30003CF8E0B2C4F30721220EC4F30743CDE915
:101F4000001053A1514801F063FB50481CBD1CB563
:101F500004461021514801F028F8E0B2C4F30721EB
:101F6000220EC4F30743CDE900104DA14B4801F008
:101F70002FFB4A481CBD70B58EB005466C462946FD
:101F8000684601F059F8002628E03FA1204601F0FC
:101F90005DF8044614B900200EB070BD20783028DA
:101FA0000AD16078782807D10DAA1021A01CFFF76C
:101FB00025FF48B90020EFE70DAA0A212046FFF7C8
:101FC0001DFF08B90020E7E70D98002802DB0D98F7
:101FD000FF2801DD0020DFE70024761C042ED4DB7F
:101FE0000120D9E7F0B58FB006460F4601AC314667
:101FF00001A801F021F800252AE023A1204601F0E4
:1020000025F8044614B900200FB0F0BD2078302820
:102010000AD16078782807D10EAA1021A01CFFF7FA
:10202000EDFE48B90020EFE70EAA0A212046FFF78F
:10203000E5FE08B90020E7E70E9878550E980028CD
:1020400002DB0E98FF2801DD0020DDE700246D1C77
:10205000042DD2DB0120D7E770B506460024002509
:1020600000BF09E0240240F6084101EB461148197F
:1020700000F0E4F804446D1C042DF3DB204670BD31
:1020800050000020520000202E000000EC0600202E
:1020900025642E25642E25642E2564000C0700205F
:1020A000253033642E253033642E253033642E25BD
:1020B0003033640070B5044641F2080101EB44106E
:1020C00000F0BCF805464FF6FF7000EA052541F226
:1020D000080101EB4411481C00F0B0F8284485B217
:1020E000284670BD00B503461846FFF7B8FE00BD90
:1020F00000B503461846FFF7B9FE00BD10B504460B
:102100002046FFF7EFFF10BD10B504462046FFF74D
:10211000EFFF10BDF1B500246D4600BF15E004F5DA
:10212000A06000F08BF8295D00EA010704F57060FB
:1021300000F084F8064604F5A06000F07FF8064041
:10214000B74201D00120F8BD641C042CE7DB00205D
:10215000F9E770B506460D46032D00DD00252C4637
:1021600008E0204600F011FAB04201D1204670BDCF
:10217000601CC4B2082CF4DB0820F8E7F0B5024676
:102180000D46C5F34F06002400210EE012F8113071
:102190004FF6FF7707EA0323012707EB4107D75DD7
:1021A0001F44BBB21C444F1CB9B2B142EEDB05F078
:1021B00001071FB112F8113004EB0324A0B200EBA9
:1021C0001447FF43B8B2F0BD0146FE48405C70477B
:1021D000FC4A115470470146FB4830F81100704723
:1021E0000146FA4830F81100704710B50020FFF79B
:1021F0001DFD10BD10B50120FFF718FD10BD10B575
:1022000004462046FFF722FD10BD70B504460D467A
:10221000FFF7EBFFC4F30740FFF7F1FFC4F307201C
:10222000FFF7EDFF04F0F801091DC8B2FFF7E7FF63
:102230002846FFF7E4FFFFF7DDFF70BD70B50446E9
:102240000025FFF7D2FFC4F30740FFF7D8FFC4F320
:102250000720FFF7D4FF04F0F800FFF7D0FF0020BD
:10226000FFF7CDFF0546FFF7C5FF284670BD2DE9F6
:10227000F04104460F461546002615B9D4A001F0DA
:10228000B7F9FFF7B2FFC4F30740FFF7B8FFC4F395
:102290000720FFF7B4FF04F0F801091DC8B2FFF7EB
:1022A000AEFF002604E0B85DFFF7A9FF701C86B200
:1022B000AE42F8DBFFF79EFF2846BDE8F0812DE92E
:1022C000F04104460F461546002615B9C0A001F09E
:1022D0008FF9FFF78AFFC4F30740FFF790FFC4F3BD
:1022E0000720FFF78CFF04F0F800FFF788FF0026B7
:1022F00005E00020FFF783FFB855701C86B2AE42A0
:10230000F7DBFFF777FF2846BDE8F08110B50446FC
:1023100021460020FFF779FF10BD10B58020FFF7A0
:10232000F5FF10BD2DE9F04105460E460027B846E1
:10233000002489E0295D41F6087202EB4410FFF7A2
:1023400064FF315D41F6086202EB4410FFF75DFF68
:1023500000209E4921F814009B4921F81400B7F58C
:10236000804F32DC285D042816D004DC012807D019
:10237000022823D10AE0082814D010281ED117E023
:102380004FF48060914921F814001DE04FF4006083
:102390008E4921F8140017E04FF480508B4921F842
:1023A000140011E04FF40050884921F814000BE0AC
:1023B0004FF48040854921F8140005E04FF4006097
:1023C000814921F8140000BF00BFB8F5804F32DC0E
:1023D000305D042816D004DC012807D0022823D160
:1023E0000AE0082814D010281ED117E04FF48060AE
:1023F000754921F814001DE04FF40060724921F87E
:10240000140017E04FF480506F4921F8140011E0D8
:102410004FF400506C4921F814000BE04FF4804059
:10242000694921F8140005E04FF40060664921F87D
:10243000140000BF00BF654830F81400074462482C
:1024400030F814008044641C082CFFF673AFBDE81C
:10245000F08110B50446042221469001FFF707FFE2
:1024600010BD10B50446042221469001FFF727FF56
:1024700010BD10B50446042221464FF4A060FFF7BA
:10248000F6FE10BD10B50446062221464FF410603A
:10249000FFF7EDFE10BD10B50446042221464FF4AF
:1024A0007060FFF7E4FE10BD10B50446042221461B
:1024B0009001FFF704FF10BD10B504460422214629
:1024C0004FF4A060FFF7FBFE10BD10B504460622D6
:1024D00021464FF41060FFF7F2FE10BD10B5044620
:1024E000042221464FF47060FFF7E9FE10BD10B5DD
:1024F0004FF4A850FFF7A2FE10BD10B50446210A04
:102500004FF4C850FFF781FEE1B24FF4D050FFF70F
:102510007CFE10BD10B5044621464FF4D850FFF79D
:1025200074FE10BD70B50446FFF7E1FF60EA0400D9
:10253000C5B229464FF4A850FFF767FE70BD70B5CD
:1025400004460D46290A41F2082202EB4410FFF727
:102550005CFEE9B241F2083202EB4410FFF755FE8F
:1025600070BD70B504460D4641F2086101EB4410A0
:102570002946FFF74AFE70BD10B504464FF40271BC
:1025800001EB4410FFF75AFE10BD10B504464FF49E
:10259000427101EB4410FFF751FE10BD70B50446C7
:1025A0000025002600BF42F2080101EB4410FFF7AE
:1025B00045FE064642F2081101EB4410FFF73EFECD
:1025C00012E00000540000202C0700201C0700200F
:1025D000556E657870656374656432206C656E67EE
:1025E000746820300D0A000000EB062086B27EB130
:1025F00042F2080101EB4410FFF720FE054642F2CB
:10260000081101EB4410FFF719FE00EB052085B21D
:10261000B542C8D1284670BD70B5044600250026D5
:1026200000BF42F2086101EB4410FFF707FE0646C7
:1026300042F2087101EB4410FFF700FE00EB0620A8
:1026400086B27EB142F2086101EB4410FFF7F6FD5D
:10265000054642F2087101EB4410FFF7EFFD00EB75
:10266000052085B2B542DCD1284670BD2DE9F04188
:1026700004460F4616460025A8462EB921463BA023
:1026800000F0B6FFBDE8F08142F2084101EB4410D2
:10269000FFF7D4FD054642F2085101EB4410FFF765
:1026A000CDFD00EB052085B2280200EB441000F1BF
:1026B0001008324639464046FFF7D9FDA81985B2C1
:1026C000290A42F2084202EB4410FFF79EFDE9B2EC
:1026D00042F2085202EB4410FFF797FD00BFD1E72A
:1026E0002DE9F04104460F4616460025A8462EB9AE
:1026F000214626A000F07CFFBDE8F08142F60801EB
:1027000001EB4410FFF79AFD054642F6081101EB74
:102710004410FFF793FD00EB052085B2280200EB83
:10272000441000F11808324639464046FFF7C7FD0D
:10273000A81985B2290A42F6080202EB4410FFF7F5
:1027400064FDE9B242F6081202EB4410FFF75DFDAA
:1027500000BFD1E770B504460D464FF4027101EB9E
:1027600044102946FFF751FD70BD000043483A2050
:10277000256420556E657870656374656431206CDE
:10278000656E67746820300D0A00000043483A20E7
:10279000256420556E657870656374656432206CBD
:1027A000656E67746820300D0A0000002DE9F84F4F
:1027B00081468A4615461E462C46FE480088401C27
:1027C000FC49088008460088FFF78CFC20804FF405
:1027D000807040EAC92080B200900098FFF782FC28
:1027E00060800120FFF77EFCA0800020FFF77AFCCC
:1027F000E0800020FFF776FC20810020FFF772FCCC
:1028000060810C34D046404600F002FC1FFA80FB89
:1028100000BF2E21404600F0F1FB07461FB1A7EB99
:10282000080086B200E05E4604F8016B06B911E0CC
:1028300032464146204600F0D5FB34441FB9002003
:1028400004F8010B06E0701C8044ABEB00001FFA9B
:1028500080FBDEE700BF0120FFF744FC2080012061
:10286000FFF740FC6080241D601BBDE8F88F2DE958
:10287000F043C0B007468C46144600250026A84603
:102880006946624600BF12F8013B06B96D1C03F0B1
:10289000C000C0280AD106B96D1C0126107803F0CB
:1028A0003F0900EB0920C21912F8013B03B91CE0F3
:1028B000581C201A84B2002C04DC4FF0FF3040B0CA
:1028C000BDE8F08306B91D4403E012F8010B01F8DE
:1028D000010B181EA3F101091FFA89F3F5D12E206F
:1028E00001F8010B08F10108CDE700BFB8F1000FB6
:1028F00004D12E2001F8010B601E84B2002001F8E3
:10290000010B601E84B22846D9E770B506460C4616
:102910004FF4807221463046FFF7A9FF0546681C38
:1029200008B9002070BD2C44A41CA41C2046F9E763
:102930002DE9F04107460C464FF480722146384697
:10294000FFF795FF0546681C10B90020BDE8F0812F
:102950002C442088FFF7D2FB0646A41CA41C241D8F
:10296000A41C112E5ED2DFE806F05D091B5D5D1729
:102970003E18191A5D5D1C295D305C0014F8010BCE
:102980008D49087014F8010B487014F8010B887019
:1029900014F8010BC87046E000BF00BF00BF00BFC5
:1029A00000BF4FF4807221463846FFF760FF0546AE
:1029B000681C08B90020C9E72C4434E014F8015B16
:1029C0002C4414F8015B2C442DE0A41C4FF48072BD
:1029D00021463846FFF74BFF0546681C08B9002022
:1029E000B4E72C441FE04FF4807221463846FFF7CD
:1029F0003EFF0546681C08B90020A7E72C444FF4A9
:102A0000807221463846FFF732FF0546681C08B938
:102A100000209BE72C44241D241D241D241D241D5F
:102A200001E000E000BF00BF20468FE72DE9F0473E
:102A3000044688464646002020603088FFF75EFB4B
:102A400020807088FFF75AFB87B207F4004008B176
:102A50000120A070C7F3C320E07007F4806008B1C4
:102A60000120207107F4007008B10120607107F4A3
:102A7000807008B10120A07107F0800008B101202A
:102A8000E07107F00F002072B088FFF737FB60811C
:102A9000F088FFF733FBA0813089FFF72FFBE0813F
:102AA0007089FFF72BFB208206F10C09002506E058
:102AB00049463046FFF729FF8146681C85B2608988
:102AC000A842F5DC002506E049463046FFF730FF16
:102AD0008146681C85B2A089A842F5DC002501E08A
:102AE000681C85B2E089A842FADC002501E0681C78
:102AF00085B2208AA842FADC207A10B90120BDE80C
:102B0000F0870020FBE770B588B005460E462846E2
:102B1000FFF73BFDA8B322285BD12846FFF77CFDD9
:102B2000041E1CDDB4F5807F01DD4FF4807401A824
:102B300002AB2246214900902846FEF71CFF0446BE
:102B40001E4903A8FFF772FF28B12846FEF7D8FCFC
:102B5000022008B070BD03201949086008E04FF456
:102B60007A70FFF7ADF816480068401C14490860F9
:102B700013480068032805D32846FEF7C1FC01204E
:102B8000E7E700E025E000200D490860002340F65B
:102B9000B83202212846FEF7CDFC4FF48073074A75
:102BA00031460020FFF702FE84B23520054B224655
:102BB000024909E0620000205E0000203C0F002076
:102BC00068000020B000002000902846FEF74DFE6F
:102BD00000BF00BF0020BCE738B5002400250DB9B8
:102BE000032C01DD002038BD042243A1444800F03D
:102BF00016FA00282CD043490220FFF784FF012851
:102C00001DD0022822D101253D4838383E490968A7
:102C1000C0F8591000240A203C4908703848383858
:102C200090F85C0000903648383890F85B3090F8A7
:102C30005A2090F8591036A000F0DAFC07E0002581
:102C4000601CC4B236A000F0D3FC00E000BF0FE06F
:102C50002B48383890F83B0000902948383890F8D5
:102C60003A3090F8392090F838103DA000F0C0FCC0
:102C700026480078401C254908700120B3E710B5AC
:102C80004048008800F40040C8B13E4800783E4902
:102C90000870084602783D491A4800F06DF9002096
:102CA0003849088038480178491C384800F07DF9D7
:102CB000144937A000F09CFC01203C4908703B48B7
:102CC0000078012815D1114800780A280FDB002070
:102CD000364908702C480178491C0A4800F065F90B
:102CE00000200A49087032A000F082FC01E00120B7
:102CF00010BD0020FCE70000000000000000000004
:102D0000B00000203C0700205E000020640000208E
:102D100025642E25642E25642E25640D0A000000EE
:102D20004661696C2120506C65617365206368653C
:102D3000636B20796F7572206E6574776F726B208C
:102D4000636F6E66696775726174696F6E206F720A
:102D500020444E53207365727665722E0D0A000072
:102D6000496E76616C696420444E532073657276B7
:102D70006572205B25642E25642E25642E25645DF6
:102D80000D0A00006C0000205C0000203C130020B5
:102D90005B202573205D27732049502041646472B5
:102DA0006573732069733A0D0A0000005D0000200E
:102DB000496E7075742074686520646F6D61696E0A
:102DC000206E616D652865673E3E7777772E62617C
:102DD0006964752E636F6D293A0D0A0000B585B0E0
:102DE000012144F20500FDF737FD18208DF803009E
:102DF0004FF40070ADF8000003208DF80200694622
:102E00005948FDF76DFA04208DF803000002ADF873
:102E1000000069465448FDF763FA4FF4E130019031
:102E20000020ADF80800ADF80A00ADF80C00ADF8D0
:102E300010000C20ADF80E00012240F225514B4845
:102E4000FDF7CFFF01A94948FDF733FF01214748AE
:102E5000FDF7BBFF05B000BD70B504460D46E1B2FD
:102E60004248FEF71FF800BF80214048FEF788F86F
:102E70000028F9D0204670BD10B5044621463B48D5
:102E8000FEF710F800BF80213848FEF779F80028D7
:102E9000F9D010BD10B504460BE014F8011B3348FF
:102EA000FEF700F800BF80213048FEF769F80028DF
:102EB000F9D020780028F0D110BD10B540F225518E
:102EC0002A48FEF773F810B32848FDF7EFFFC4B2A5
:102ED0002748008800F40040C8B92548008800F45D
:102EE000804060B10A2C03D000202149088020E0F6
:102EF0001F48008840F400401D49088019E00D2C4F
:102F000006D11B48008840F480401949088010E031
:102F100017480088C0F30D0016490C541448008867
:102F2000401C1349088008460088C72801DD00209E
:102F3000088010BD08B54FF4C060FDF703F92520E7
:102F40008DF8000001208DF8010000208DF80200AE
:102F500001208DF803006846FDF7F9F800214FF0D5
:102F60000060FDF726F908BD000801400038014067
:102F70006C0000203C13002040EA01039B0703D0B3
:102F800009E008C9121F08C0042AFAD203E011F8A8
:102F9000013B00F8013B521EF9D27047D2B201E06A
:102FA00000F8012B491EFBD270470022F6E710B54E
:102FB00013460A4604461946FFF7F0FF204610BDA7
:102FC00030B505462A460B4612F8010B13F8014BA3
:102FD00008B1A042F8D01CB1002802D06D1CF1E766
:102FE000284630BD10B5044604E00B7800F8013BDC
:102FF00003B1491C521EF8D2204610BDCAB2401E71
:1030000010F8011F8A4202D00029F9D10020704730
:10301000421C10F8011B0029FBD1801A704730B503
:1030200004460020034600E05B1C934203D2E05CB0
:10303000CD5C401BF8D030BD034611F8012B00F8E1
:10304000012B002AF9D118467047000070B50F4DCA
:1030500000B92868002412E00A4602E09E4203D02C
:10306000521C1378002BF9D1DAB2224305D02BB1D0
:1030700024B1002100F8011B04E00446401C06783E
:10308000002EE9D12860204670BD000070000020AD
:1030900030B50B46014600202022012409E021FA28
:1030A00002F59D4205D303FA02F5491B04FA02F525
:1030B0002844151EA2F10102F1DC30BD2DE9F05FBC
:1030C0000546002092469B46884606468146402497
:1030D0001BE0284641464746224600F0FAF953468F
:1030E0005A46C01A914110D311461846224600F0A4
:1030F000E1F92D1A67EB01084F4622460120002115
:1031000000F0D8F917EB00094E41201EA4F101048C
:10311000DFDC484631462A464346BDE8F09F2DE9AC
:10312000FE4F804681EA0300C00F0C46009021F05C
:10313000004123F00045B8EB0200A94105D240460A
:10314000214690461C460B46024623F000401043A1
:1031500047D0270DC7F30A00C3F30A510290401A63
:10316000019040286BDAC3F3130040F4801B0098F1
:10317000924620B10023D2EB030A63EB0B0B0198BC
:103180005946C0F14002504600F094F906460D46FB
:1031900050465946019A00F0ACF910EB0800614125
:1031A000002487EA115284EAE7731A4340D0009A58
:1031B00062B3019A012A4FEA075215DC001B61EB4A
:1031C00002014FF0004202EA0752CDE90042001C22
:1031D00041F5801132462B4600F0ACF903B0BDE852
:1031E000F08F40462146F9E7001B61EB0201001C0D
:1031F00041F5801300185B412018A2F5001747EB3A
:10320000030140EAD570B6196D4111E06D084FEA2F
:10321000360645EAC0754FEA0752001B61EB020112
:10322000001C41F5801149084FEA30000019514156
:1032300032462B4603B0BDE8F04F00F06CB9009861
:10324000012240000023D0EB020263EBE073009800
:1032500021464FEAE074B8EB000061EB0401E9E7B6
:1032600083F000435BE781F0004158E72DE9FE4F12
:1032700081EA030404F0004421F0004100944FF07F
:10328000000B23F0004350EA01045ED052EA03042D
:103290005BD0C3F30A54C1F30A552C44A4F2F334AF
:1032A0000194A0FB0254C1F3130141F48011C3F354
:1032B000130343F4801301FB024400FB034E840A12
:1032C000970A44EA815447EA8357A4FB07680295AA
:1032D0008D0A05FB07854FEA932C04FB0C54270548
:1032E000029D4FEA065847EA1637B5EB08056EEB24
:1032F000070C870E920E47EA811742EA8312A7FB5A
:103300000201B6EB0B0164EB00042B0D43EA0C3316
:103310005E1844EB1C50DA465146E7FB0201C5F348
:1033200013044FEA0B3343EA14534FEA0432019C6F
:1033300043EA0603A4F10C040294009CCDE900B416
:1033400000F0F8F803B0BDE8F08F00200146F9E77F
:103350002DE9F04D81EA030404F0004B21F0004513
:1033600014464FF0000A23F0004150EA050220D035
:1033700054EA01021DD0C5F30A570246C5F31303F0
:10338000C1F31300C1F30A5640F4801543F48013CF
:10339000A7EB0608101BD64608F2FD3873EB0500B4
:1033A00002D308F1010801E092185B41B8F1000F67
:1033B00003DA00200146BDE8F08D00204FF48011B3
:1033C000064684460EE0171B73EB050705D3121B58
:1033D00063EB050306434CEA010C49084FEA300051
:1033E00092185B4150EA0107EDD152EA030012D076
:1033F00082EA040083EA0501084305D0101BAB41B3
:1034000006D20122002306E000224FF0004302E032
:103410006FF0010253101AEB06004CEB085110EB51
:103420000A0041EB0B01BDE8F04D00F074B8C1F3A8
:103430000A52C1F3130140F2FF3341F480119A4262
:1034400002DA00200146704740F233439A42A2F26A
:10345000334202DC524200F03CB800F02BB80000CE
:1034600030B5041E71F1000404DB4FF0004440420B
:1034700064EB0101141E73F1000405DB1C464FF0E0
:103480000043524263EB0403994208BF904230BDAF
:10349000064C074D06E0E06840F0010394E80700A1
:1034A00098471034AC42F6D3FCF746FECC400008F7
:1034B000EC400008202A04DB203A00FA02F1002048
:1034C00070479140C2F1200320FA03F31943904062
:1034D0007047202A04DB203A21FA02F000217047CD
:1034E00021FA02F3D040C2F120029140084319466C
:1034F0007047202A06DBCB17203A41FA02F043EA54
:10350000E07306E041FA02F3D040C2F1200291409C
:1035100008431946704710B5141E73F1000408DA09
:10352000401C41F1000192185B411A4301D120F087
:10353000010010BD2DE9F04D92469B4611B1B1FA44
:1035400081F202E0B0FA80F220329046FFF7B2FF3B
:1035500004460F4640EA0A0041EA0B0153465A4628
:10356000084313D0114653EA010019D0C8F14002B4
:103570005046FFF7AEFF05460E46504659464246B6
:10358000FFF798FF084305D0012004E020463946A4
:10359000BDE8F08D0020054346EAE0762C43374332
:1035A0000A986305E40AA0EB08000022FD0A44EA39
:1035B00047540A3002D500200146E9E701051019F9
:1035C0006941DDE9084500196941BDE8F04DA2E710
:1035D0000FB4054B10B503A9044A029800F0DAF9BC
:1035E00010BC5DF814FB0000592E00087400002088
:1035F0000FB4054B10B503A9044A029800F0EEF889
:1036000010BC5DF814FB0000592E00087400002067
:103610000FB4084B10B504A902AA039800F0DEF815
:10362000044602A9002000F04CFD204610BC5DF8C5
:1036300014FB0000C340000802E008C8121F08C1C4
:10364000002AFAD170477047002001E001C1121F23
:10365000002AFBD1704700002DE9FF5F82B00021F6
:10366000DDE90430020DDDF840B0034318D044F624
:103670001050A2F2FF3242431514119801281FD0B6
:10368000A5EB0B00401C5FEA000A4FF000064E4F0E
:10369000DFF83891B046504615D5CAF1000413E062
:1036A000119801244AA3012801D16FEA0B01029865
:1036B000119AC0E90031C0E9024206B0BDE8F09FAE
:1036C000CBF10000DFE704460021404A491842EBF5
:1036D0000450CDE9001012E0E00707D032463B4627
:1036E00040464946FFF7C2FD8046894632463B4682
:1036F00010461946FFF7BAFD06460F466410002C27
:10370000EAD1DDE90401DDE90023BAF1000F06DAB0
:10371000FFF7ACFD42464B46FFF7A8FD05E0FFF77B
:1037200017FE42464B46FFF713FE04460E460022A4
:10373000284BFFF795FE03D84FF0FF30014607E016
:103740000022254B20463146FFF7E9FCFFF76FFECC
:10375000102409E0002C0ADB0A220023FFF7AEFC4C
:10376000039B30321A55641E50EA0102F2D1641CE8
:10377000039AC4F111031444119A012A03D00122BF
:1037800008430DD10AE0084304D000204FF0110B8C
:10379000119072E7A3EB0B056D1E0DE05B4504DD98
:1037A0004FF0000205F1010504E003DA4FF00002DA
:1037B000A5F10105002AECD002981199C0E9023167
:1037C000C0E9004579E70000000014400000F03F28
:1037D000300000000000F0430000E03F2DE9FF4F03
:1037E0008BB09A460F460546002606E025280BD0EA
:1037F00052460D9990476D1C761C28780028F5D10B
:103800000FB03046BDE8F08F0024A0460122604989
:1038100000E0044315F8013F203B02FA03F00842A0
:10382000F7D128782E2817D115F8010F44F0040499
:103830002A280ED06FF02F022878A0F13001092934
:103840000AD808EB880102EB410100EB01086D1C6E
:10385000F2E757F8048B6D1C287869283ED006DC07
:103860000028CDD063280BD0642804D136E073281B
:1038700010D075284BD052460D999047761C85E0A4
:1038800017F8040B8DF8000000208DF80100E946C0
:10389000012003E057F8049B4FF0FF3061074FF021
:1038A000000401D40AE0641C44450DDA8442FADBCA
:1038B00019F804100029F6D106E0641C8442FCDBF0
:1038C00019F804100029F8D1264404E019F8010B76
:1038D00052460D999047641EF8D257E001CF4FF041
:1038E0000A0B002802DA40422D2102E0210504D50E
:1038F0002B218DF82410012103E0E10705D02021C0
:10390000F7E70DF1200908910CE00021F9E701CF5C
:103910004FF00A0BF9E75946FFF7BAFB01F1300205
:1039200009F8012D0028F6D1ADEB090000F1200BBC
:10393000600701D44FF00108D84502DDA8EB0B0069
:1039400000E000208046002406E009A85246005D01
:103950000D999047641C761C08988442F5DB04E0BE
:10396000302052460D999047761CB8F10001A8F11D
:103970000108F5DC05E019F8010B52460D99904756
:10398000761CBBF10001ABF1010BF4DC6D1C34E7DC
:10399000092801002DE9FF4F95B09B468946064650
:1039A00000250FE2252877D100242746F84A012177
:1039B000059400E0044316F8013F203B01FA03F0B0
:1039C0001042F7D130782A2811D06FF02F033078C9
:1039D000A0F13002092A16D8059A44F0020402EB3D
:1039E000820203EB42021044761C0590EFE759F87F
:1039F000042B0592002A03DA504244F40054059047
:103A000044F00204761C30782E2816D116F8010FE7
:103A100044F004042A280DD06FF02F023078A0F172
:103A20003003092B09D807EB870302EB4303C718C0
:103A3000761CF3E759F8047B761C30786C280FD09D
:103A400006DC4C2817D068280DD06A2814D104E071
:103A5000742810D07A280FD10DE044F400140AE045
:103A600044F4801401E044F440147278824202D19C
:103A700004F58014761C761C307866280BD013DC95
:103A8000582877D009DC002875D04528F6D046287C
:103A9000F4D047281AD19DE118E0632835D0642876
:103AA00079D0652812D195E1702873D008DC672899
:103AB000F1D069286FD06E280DD06F2806D1B5E0FF
:103AC00073282CD0752875D0782874D05A46179949
:103AD00090476D1C75E1C4F30250022809D00328F9
:103AE0000DD0D9F8001004280DD00D6009F104099B
:103AF00067E1D9F80010EA17C1E90052F6E7D9F8F2
:103B000000100D80F2E70D70F0E719F8041B8DF836
:103B1000001000208DF80100EA46012003E059F86A
:103B200004AB4FF0FF3061074FF0000102D40DE00D
:103B300008F101018846B9420FDA8045F8DB1AF82E
:103B400008100029F4D108E008F1010188468142FB
:103B5000FADB1AF808100029F6D105985B46A0EBAD
:103B6000080721463846179A00F094FA284400EBDB
:103B7000080507E04DE029E10DE01AF8010B5A466F
:103B800017999047B8F10108F7D25B4621463846AD
:103B9000179A13E142E00A220092C4F302524FF056
:103BA000000A022A08D059F804CB032A4FEAEC7124
:103BB0000AD00DE029E02AE009F1070121F007020F
:103BC000F2E802C1914609E00FFA8CFC4FEAEC7171
:103BD000042A03D14FFA8CFC4FEAEC71002907DA72
:103BE0000A460021DCF1000C61EB02012D2202E00B
:103BF000220504D52B228DF80420012203E0E207E0
:103C000001D02022F7E7904659E00A2102E0102275
:103C10000DE010214FF0000A00910BE010224FF050
:103C2000000A44F004040827009203E008224FF041
:103C3000000A0092C4F30252022A05D059F804CBBC
:103C40000021032A08D009E009F1070121F0070249
:103C5000F2E802C1914605E01FFA8CFC042A01D16A
:103C60000CF0FF0C4FF00008220728D5702806D072
:103C7000009B83F0100353EA0A0305D00EE04022B4
:103C80008DF80420012208E05CEA010206D030220F
:103C90008DF804208DF8050002229046009B83F0E9
:103CA000080353EA0A030AD15CEA010201D1620760
:103CB00005D530228DF804204FF001087F1E5828CA
:103CC00004D034A003900EA802900DE036A0F9E7CE
:103CD00053466046009AFFF7F1F984460398825CE8
:103CE0000298401E029002705CEA0100F0D1029836
:103CF00006A9081A00F1200A600702D524F48034CE
:103D000000E00127574502DDA7EB0A0000E0002094
:103D100000EB0A01009005984144401A0590E00329
:103D200006D45B462146179A059800F0B3F905447E
:103D3000002706E001A85A46C05D179990476D1C00
:103D40007F1C4745F6DBE0030CD55B462146179AFE
:103D5000059800F09FF9054404E030205A46179971
:103D600090476D1C0099481E00900029F5DC08E082
:103D7000029802995A460078491C02911799904777
:103D80006D1CBAF10001AAF1010AF1DC65E1000045
:103D90000928010030313233343536373839616221
:103DA00063646566000000003031323334353637E5
:103DB00038394142434445460000000000F058F9BC
:103DC0000544761C307800287FF4ECAD19B0284605
:103DD000BDE8F08F620700D4062709F1070222F040
:103DE000070CFCE80223E14603F000485FEA080CF8
:103DF00002D00FF2702C0DE05FEA045C02D50FF2E6
:103E0000682C07E05FEAC47C02D00FF2602C01E06E
:103E1000AFF2700C4FF0FF3823F00043CDF850C0E4
:103E200065280CD006DC452809D046281DD0472837
:103E30003DD13DE0662818D067287ED138E00021CA
:103E4000112F01DB112000E0781CCDE9000106A94B
:103E50000EA8FFF701FCDDE90F010E9A0391002186
:103E6000009207F1010A04914DE04FF000400097E5
:103E7000CDE9011006A90EA8FFF7EEFBDDE90F0260
:103E800003920E9B11990022DDF80CA0009304927E
:103E900011B9791C00EB010AB7EB0A0004D4C0F198
:103EA000FF3007F1010A0490AAEB0700019044E0FB
:103EB000012F00DA01270021112F01DD112000E080
:103EC0003846CDE9000106A90EA8FFF7C5FBDDE9DC
:103ED0000F010E9A0391002104910092BA46210726
:103EE0000CD40399514500DA8A46BAF1010F05DD79
:103EF000009AAAF10101515C302908D0B84202DAD7
:103F000010F1040F06DA0121CDE9011015E0AAF144
:103F10000101E9E7002805DC049901440491AAEBBA
:103F2000000102E0411C514500DD8A460499401A17
:103F3000401C01904FF000400290200704D40198EB
:103F4000504501DBCDF8048000208DF84F00029829
:103F50000DF14F07B0F1004F25D02B200E900298A5
:103F60004FF0020800280CDA404202902D200E90FB
:103F700007E00A210298FFF78BF83031029007F82A
:103F8000011DB8F10001A8F10108F2DC0298002837
:103F9000EFD1791E0E980870307800F0200040F0C4
:103FA000450007F8020D12A8C01B00F1070814987D
:103FB000007800B1012000EB0A01019801EBE071EB
:103FC00005984144401A401E0590E00306D45B4624
:103FD0002146179A059800F05DF80544149800787A
:103FE00018B15A46179990476D1CE00324D55B46DB
:103FF0002146179A059800F04DF805441CE00498F6
:10400000002807DBDDE90301884203DD0098405CFE
:10401000179901E0179930205A469047049805F106
:104020000105401C04900198401E019004D12E20EF
:104030005A46179990476D1CBAF10001AAF1010A7E
:10404000DDDC05E017F8010B5A46179990476D1C07
:10405000B8F10001A8F10108F4DC5B462146179A8B
:104060000598ABE62D0000002B00000020000000AA
:104070002DE9F041044600251E461746880404D465
:1040800005E039462020B0476D1C641EF9D528464E
:10409000BDE8F0812DE9F041044600251E4690461A
:1040A000C80301D5302700E02027880404D505E0A7
:1040B00041463846B0476D1C641EF9D52846BDE818
:1040C000F0810A68531C0B6010707047EC400008C8
:1040D0000000002078000000383600086441000825
:1040E00078000020901B0000483600080000000007
:1040F000010203040102030406070809020406087A
:1041000000A24A04000000000000000001020304B5
:104110000607080902020202020202020202020269
:10412000020202020008DC111111C0A80396FFFF71
:10413000FF00C0A80301727272720000000000004C
:10414000000000000000000000000000000022113C
:10415000000000000000000000000000000000005F
:04416000000000005B
:0400000508000131BD
:00000001FF
